{
	"SimpleStorage.sol": {
		"SimpleStorage": {
			"abi": [
				{
					"anonymous": false,
					"inputs": [
						{
							"indexed": false,
							"internalType": "uint256",
							"name": "newNumber",
							"type": "uint256"
						},
						{
							"indexed": false,
							"internalType": "address",
							"name": "updatedBy",
							"type": "address"
						}
					],
					"name": "NumberUpdated",
					"type": "event"
				},
				{
					"inputs": [
						{
							"internalType": "uint256",
							"name": "a",
							"type": "uint256"
						},
						{
							"internalType": "uint256",
							"name": "b",
							"type": "uint256"
						}
					],
					"name": "MemoryVariableCalculation",
					"outputs": [
						{
							"internalType": "uint256",
							"name": "",
							"type": "uint256"
						}
					],
					"stateMutability": "pure",
					"type": "function"
				},
				{
					"inputs": [],
					"name": "activateContract",
					"outputs": [],
					"stateMutability": "nonpayable",
					"type": "function"
				},
				{
					"inputs": [
						{
							"internalType": "uint256",
							"name": "_number",
							"type": "uint256"
						}
					],
					"name": "addFavoriteNumber",
					"outputs": [],
					"stateMutability": "nonpayable",
					"type": "function"
				},
				{
					"inputs": [
						{
							"internalType": "string",
							"name": "_name",
							"type": "string"
						},
						{
							"internalType": "uint256",
							"name": "_favoriteNumber",
							"type": "uint256"
						}
					],
					"name": "addPerson",
					"outputs": [],
					"stateMutability": "nonpayable",
					"type": "function"
				},
				{
					"inputs": [],
					"name": "callInternalFunction",
					"outputs": [
						{
							"internalType": "string",
							"name": "",
							"type": "string"
						}
					],
					"stateMutability": "pure",
					"type": "function"
				},
				{
					"inputs": [],
					"name": "deactivateContract",
					"outputs": [],
					"stateMutability": "nonpayable",
					"type": "function"
				},
				{
					"inputs": [],
					"name": "externalFunction",
					"outputs": [
						{
							"internalType": "string",
							"name": "",
							"type": "string"
						}
					],
					"stateMutability": "pure",
					"type": "function"
				},
				{
					"inputs": [],
					"name": "favoriteNumber",
					"outputs": [
						{
							"internalType": "uint256",
							"name": "",
							"type": "uint256"
						}
					],
					"stateMutability": "view",
					"type": "function"
				},
				{
					"inputs": [
						{
							"internalType": "uint256",
							"name": "",
							"type": "uint256"
						}
					],
					"name": "favoriteNumbers",
					"outputs": [
						{
							"internalType": "uint256",
							"name": "",
							"type": "uint256"
						}
					],
					"stateMutability": "view",
					"type": "function"
				},
				{
					"inputs": [],
					"name": "getFavoriteNumber",
					"outputs": [
						{
							"internalType": "uint256",
							"name": "",
							"type": "uint256"
						}
					],
					"stateMutability": "view",
					"type": "function"
				},
				{
					"inputs": [],
					"name": "isActive",
					"outputs": [
						{
							"internalType": "bool",
							"name": "",
							"type": "bool"
						}
					],
					"stateMutability": "view",
					"type": "function"
				},
				{
					"inputs": [
						{
							"internalType": "string",
							"name": "",
							"type": "string"
						}
					],
					"name": "nameToFavoriteNumber",
					"outputs": [
						{
							"internalType": "uint256",
							"name": "",
							"type": "uint256"
						}
					],
					"stateMutability": "view",
					"type": "function"
				},
				{
					"inputs": [
						{
							"internalType": "uint256",
							"name": "",
							"type": "uint256"
						}
					],
					"name": "people",
					"outputs": [
						{
							"internalType": "string",
							"name": "name",
							"type": "string"
						},
						{
							"internalType": "uint256",
							"name": "favoriteNumber",
							"type": "uint256"
						}
					],
					"stateMutability": "view",
					"type": "function"
				},
				{
					"inputs": [
						{
							"internalType": "string",
							"name": "inputString",
							"type": "string"
						}
					],
					"name": "processString",
					"outputs": [
						{
							"internalType": "string",
							"name": "",
							"type": "string"
						}
					],
					"stateMutability": "pure",
					"type": "function"
				},
				{
					"inputs": [],
					"name": "state",
					"outputs": [
						{
							"internalType": "enum SimpleStorage.ContractState",
							"name": "",
							"type": "uint8"
						}
					],
					"stateMutability": "view",
					"type": "function"
				},
				{
					"inputs": [
						{
							"internalType": "uint256",
							"name": "_favoriteNumber",
							"type": "uint256"
						}
					],
					"name": "storeNumber",
					"outputs": [],
					"stateMutability": "nonpayable",
					"type": "function"
				},
				{
					"inputs": [],
					"name": "sumToFavoriteNumber",
					"outputs": [
						{
							"internalType": "uint256",
							"name": "",
							"type": "uint256"
						}
					],
					"stateMutability": "view",
					"type": "function"
				},
				{
					"inputs": [],
					"name": "testExternalFunction",
					"outputs": [
						{
							"internalType": "string",
							"name": "",
							"type": "string"
						}
					],
					"stateMutability": "view",
					"type": "function"
				}
			],
			"devdoc": {
				"kind": "dev",
				"methods": {},
				"version": 1
			},
			"evm": {
				"assembly": "    /* \"SimpleStorage.sol\":61:2837  contract SimpleStorage{... */\n  mstore(0x40, 0x80)\n  callvalue\n  dup1\n  iszero\n  tag_1\n  jumpi\n  0x00\n  dup1\n  revert\ntag_1:\n  pop\n  dataSize(sub_0)\n  dup1\n  dataOffset(sub_0)\n  0x00\n  codecopy\n  0x00\n  return\nstop\n\nsub_0: assembly {\n        /* \"SimpleStorage.sol\":61:2837  contract SimpleStorage{... */\n      mstore(0x40, 0x80)\n      callvalue\n      dup1\n      iszero\n      tag_1\n      jumpi\n      0x00\n      dup1\n      revert\n    tag_1:\n      pop\n      jumpi(tag_2, lt(calldatasize, 0x04))\n      shr(0xe0, calldataload(0x00))\n      dup1\n      0x8fda356d\n      gt\n      tag_21\n      jumpi\n      dup1\n      0xb6339418\n      gt\n      tag_22\n      jumpi\n      dup1\n      0xb6339418\n      eq\n      tag_16\n      jumpi\n      dup1\n      0xbca353be\n      eq\n      tag_17\n      jumpi\n      dup1\n      0xc19d93fb\n      eq\n      tag_18\n      jumpi\n      dup1\n      0xe0819c9a\n      eq\n      tag_19\n      jumpi\n      dup1\n      0xe894d175\n      eq\n      tag_20\n      jumpi\n      jump(tag_2)\n    tag_22:\n      dup1\n      0x8fda356d\n      eq\n      tag_12\n      jumpi\n      dup1\n      0x9e7a13ad\n      eq\n      tag_13\n      jumpi\n      dup1\n      0xa621d15e\n      eq\n      tag_14\n      jumpi\n      dup1\n      0xa7e1a364\n      eq\n      tag_15\n      jumpi\n      jump(tag_2)\n    tag_21:\n      dup1\n      0x471f7cdf\n      gt\n      tag_23\n      jumpi\n      dup1\n      0x471f7cdf\n      eq\n      tag_7\n      jumpi\n      dup1\n      0x6f760f41\n      eq\n      tag_8\n      jumpi\n      dup1\n      0x7c216809\n      eq\n      tag_9\n      jumpi\n      dup1\n      0x8701f8ca\n      eq\n      tag_10\n      jumpi\n      dup1\n      0x8bab8dd5\n      eq\n      tag_11\n      jumpi\n      jump(tag_2)\n    tag_23:\n      dup1\n      0x0cd2636e\n      eq\n      tag_3\n      jumpi\n      dup1\n      0x22f3e2d4\n      eq\n      tag_4\n      jumpi\n      dup1\n      0x29cd1d96\n      eq\n      tag_5\n      jumpi\n      dup1\n      0x3a32b549\n      eq\n      tag_6\n      jumpi\n    tag_2:\n      0x00\n      dup1\n      revert\n        /* \"SimpleStorage.sol\":1204:1393  function sumToFavoriteNumber() public view returns (uint256) {... */\n    tag_3:\n      tag_24\n      tag_25\n      jump\t// in\n    tag_24:\n      mload(0x40)\n      tag_26\n      swap2\n      swap1\n      tag_27\n      jump\t// in\n    tag_26:\n      mload(0x40)\n      dup1\n      swap2\n      sub\n      swap1\n      return\n        /* \"SimpleStorage.sol\":2295:2389  function isActive() public view returns (bool) {... */\n    tag_4:\n      tag_28\n      tag_29\n      jump\t// in\n    tag_28:\n      mload(0x40)\n      tag_30\n      swap2\n      swap1\n      tag_31\n      jump\t// in\n    tag_30:\n      mload(0x40)\n      dup1\n      swap2\n      sub\n      swap1\n      return\n        /* \"SimpleStorage.sol\":251:283  uint256[] public favoriteNumbers */\n    tag_5:\n      tag_32\n      0x04\n      dup1\n      calldatasize\n      sub\n      dup2\n      add\n      swap1\n      tag_33\n      swap2\n      swap1\n      tag_34\n      jump\t// in\n    tag_33:\n      tag_35\n      jump\t// in\n    tag_32:\n      mload(0x40)\n      tag_36\n      swap2\n      swap1\n      tag_27\n      jump\t// in\n    tag_36:\n      mload(0x40)\n      dup1\n      swap2\n      sub\n      swap1\n      return\n        /* \"SimpleStorage.sol\":1662:1769  function externalFunction() external pure returns (string memory) {... */\n    tag_6:\n      tag_37\n      tag_38\n      jump\t// in\n    tag_37:\n      mload(0x40)\n      tag_39\n      swap2\n      swap1\n      tag_40\n      jump\t// in\n    tag_39:\n      mload(0x40)\n      dup1\n      swap2\n      sub\n      swap1\n      return\n        /* \"SimpleStorage.sol\":215:244  uint256 public favoriteNumber */\n    tag_7:\n      tag_41\n      tag_42\n      jump\t// in\n    tag_41:\n      mload(0x40)\n      tag_43\n      swap2\n      swap1\n      tag_27\n      jump\t// in\n    tag_43:\n      mload(0x40)\n      dup1\n      swap2\n      sub\n      swap1\n      return\n        /* \"SimpleStorage.sol\":1997:2125  function addPerson(string memory _name, uint256 _favoriteNumber) public {... */\n    tag_8:\n      tag_44\n      0x04\n      dup1\n      calldatasize\n      sub\n      dup2\n      add\n      swap1\n      tag_45\n      swap2\n      swap1\n      tag_46\n      jump\t// in\n    tag_45:\n      tag_47\n      jump\t// in\n    tag_44:\n      stop\n        /* \"SimpleStorage.sol\":2602:2828  function processString(string calldata inputString) public pure returns (string memory) {... */\n    tag_9:\n      tag_48\n      0x04\n      dup1\n      calldatasize\n      sub\n      dup2\n      add\n      swap1\n      tag_49\n      swap2\n      swap1\n      tag_50\n      jump\t// in\n    tag_49:\n      tag_51\n      jump\t// in\n    tag_48:\n      mload(0x40)\n      tag_52\n      swap2\n      swap1\n      tag_40\n      jump\t// in\n    tag_52:\n      mload(0x40)\n      dup1\n      swap2\n      sub\n      swap1\n      return\n        /* \"SimpleStorage.sol\":1542:1656  function callInternalFunction() public pure returns (string memory) {... */\n    tag_10:\n      tag_53\n      tag_54\n      jump\t// in\n    tag_53:\n      mload(0x40)\n      tag_55\n      swap2\n      swap1\n      tag_40\n      jump\t// in\n    tag_55:\n      mload(0x40)\n      dup1\n      swap2\n      sub\n      swap1\n      return\n        /* \"SimpleStorage.sol\":90:144  mapping(string => uint256) public nameToFavoriteNumber */\n    tag_11:\n      tag_56\n      0x04\n      dup1\n      calldatasize\n      sub\n      dup2\n      add\n      swap1\n      tag_57\n      swap2\n      swap1\n      tag_58\n      jump\t// in\n    tag_57:\n      tag_59\n      jump\t// in\n    tag_56:\n      mload(0x40)\n      tag_60\n      swap2\n      swap1\n      tag_27\n      jump\t// in\n    tag_60:\n      mload(0x40)\n      dup1\n      swap2\n      sub\n      swap1\n      return\n        /* \"SimpleStorage.sol\":2131:2205  function activateContract() public {... */\n    tag_12:\n      tag_61\n      tag_62\n      jump\t// in\n    tag_61:\n      stop\n        /* \"SimpleStorage.sol\":546:568  Person[] public people */\n    tag_13:\n      tag_63\n      0x04\n      dup1\n      calldatasize\n      sub\n      dup2\n      add\n      swap1\n      tag_64\n      swap2\n      swap1\n      tag_34\n      jump\t// in\n    tag_64:\n      tag_65\n      jump\t// in\n    tag_63:\n      mload(0x40)\n      tag_66\n      swap3\n      swap2\n      swap1\n      tag_67\n      jump\t// in\n    tag_66:\n      mload(0x40)\n      dup1\n      swap2\n      sub\n      swap1\n      return\n        /* \"SimpleStorage.sol\":1103:1198  function getFavoriteNumber() public view returns (uint256) {... */\n    tag_14:\n      tag_68\n      tag_69\n      jump\t// in\n    tag_68:\n      mload(0x40)\n      tag_70\n      swap2\n      swap1\n      tag_27\n      jump\t// in\n    tag_70:\n      mload(0x40)\n      dup1\n      swap2\n      sub\n      swap1\n      return\n        /* \"SimpleStorage.sol\":1900:1991  function addFavoriteNumber(uint256 _number) public {... */\n    tag_15:\n      tag_71\n      0x04\n      dup1\n      calldatasize\n      sub\n      dup2\n      add\n      swap1\n      tag_72\n      swap2\n      swap1\n      tag_34\n      jump\t// in\n    tag_72:\n      tag_73\n      jump\t// in\n    tag_71:\n      stop\n        /* \"SimpleStorage.sol\":931:1095  function storeNumber(uint256 _favoriteNumber)   public {... */\n    tag_16:\n      tag_74\n      0x04\n      dup1\n      calldatasize\n      sub\n      dup2\n      add\n      swap1\n      tag_75\n      swap2\n      swap1\n      tag_34\n      jump\t// in\n    tag_75:\n      tag_76\n      jump\t// in\n    tag_74:\n      stop\n        /* \"SimpleStorage.sol\":2211:2289  function deactivateContract() public {... */\n    tag_17:\n      tag_77\n      tag_78\n      jump\t// in\n    tag_77:\n      stop\n        /* \"SimpleStorage.sol\":842:868  ContractState public state */\n    tag_18:\n      tag_79\n      tag_80\n      jump\t// in\n    tag_79:\n      mload(0x40)\n      tag_81\n      swap2\n      swap1\n      tag_82\n      jump\t// in\n    tag_81:\n      mload(0x40)\n      dup1\n      swap2\n      sub\n      swap1\n      return\n        /* \"SimpleStorage.sol\":1776:1894  function testExternalFunction() public view returns (string memory) {... */\n    tag_19:\n      tag_83\n      tag_84\n      jump\t// in\n    tag_83:\n      mload(0x40)\n      tag_85\n      swap2\n      swap1\n      tag_40\n      jump\t// in\n    tag_85:\n      mload(0x40)\n      dup1\n      swap2\n      sub\n      swap1\n      return\n        /* \"SimpleStorage.sol\":2395:2590  function MemoryVariableCalculation(uint256 a, uint256 b) public pure returns (uint256) {... */\n    tag_20:\n      tag_86\n      0x04\n      dup1\n      calldatasize\n      sub\n      dup2\n      add\n      swap1\n      tag_87\n      swap2\n      swap1\n      tag_88\n      jump\t// in\n    tag_87:\n      tag_89\n      jump\t// in\n    tag_86:\n      mload(0x40)\n      tag_90\n      swap2\n      swap1\n      tag_27\n      jump\t// in\n    tag_90:\n      mload(0x40)\n      dup1\n      swap2\n      sub\n      swap1\n      return\n        /* \"SimpleStorage.sol\":1204:1393  function sumToFavoriteNumber() public view returns (uint256) {... */\n    tag_25:\n        /* \"SimpleStorage.sol\":1256:1263  uint256 */\n      0x00\n        /* \"SimpleStorage.sol\":1273:1284  uint256 sum */\n      dup1\n        /* \"SimpleStorage.sol\":1287:1288  0 */\n      0x00\n        /* \"SimpleStorage.sol\":1273:1288  uint256 sum = 0 */\n      swap1\n      pop\n        /* \"SimpleStorage.sol\":1301:1310  uint256 i */\n      0x00\n        /* \"SimpleStorage.sol\":1313:1314  1 */\n      0x01\n        /* \"SimpleStorage.sol\":1301:1314  uint256 i = 1 */\n      swap1\n      pop\n        /* \"SimpleStorage.sol\":1296:1371  for (uint256 i = 1; i <= favoriteNumber; i++) {... */\n    tag_92:\n        /* \"SimpleStorage.sol\":1321:1335  favoriteNumber */\n      sload(0x01)\n        /* \"SimpleStorage.sol\":1316:1317  i */\n      dup2\n        /* \"SimpleStorage.sol\":1316:1335  i <= favoriteNumber */\n      gt\n        /* \"SimpleStorage.sol\":1296:1371  for (uint256 i = 1; i <= favoriteNumber; i++) {... */\n      tag_93\n      jumpi\n        /* \"SimpleStorage.sol\":1361:1362  i */\n      dup1\n        /* \"SimpleStorage.sol\":1354:1362  sum += i */\n      dup3\n      tag_95\n      swap2\n      swap1\n      tag_96\n      jump\t// in\n    tag_95:\n      swap2\n      pop\n        /* \"SimpleStorage.sol\":1337:1340  i++ */\n      dup1\n      dup1\n      tag_97\n      swap1\n      tag_98\n      jump\t// in\n    tag_97:\n      swap2\n      pop\n      pop\n        /* \"SimpleStorage.sol\":1296:1371  for (uint256 i = 1; i <= favoriteNumber; i++) {... */\n      jump(tag_92)\n    tag_93:\n      pop\n        /* \"SimpleStorage.sol\":1385:1388  sum */\n      dup1\n        /* \"SimpleStorage.sol\":1378:1388  return sum */\n      swap2\n      pop\n      pop\n        /* \"SimpleStorage.sol\":1204:1393  function sumToFavoriteNumber() public view returns (uint256) {... */\n      swap1\n      jump\t// out\n        /* \"SimpleStorage.sol\":2295:2389  function isActive() public view returns (bool) {... */\n    tag_29:\n        /* \"SimpleStorage.sol\":2336:2340  bool */\n      0x00\n        /* \"SimpleStorage.sol\":2365:2385  ContractState.Active */\n      dup1\n        /* \"SimpleStorage.sol\":2356:2385  state == ContractState.Active */\n      0x01\n      dup2\n      gt\n      iszero\n      tag_100\n      jumpi\n      tag_101\n      tag_102\n      jump\t// in\n    tag_101:\n    tag_100:\n        /* \"SimpleStorage.sol\":2356:2361  state */\n      0x04\n      0x00\n      swap1\n      sload\n      swap1\n      0x0100\n      exp\n      swap1\n      div\n      0xff\n      and\n        /* \"SimpleStorage.sol\":2356:2385  state == ContractState.Active */\n      0x01\n      dup2\n      gt\n      iszero\n      tag_103\n      jumpi\n      tag_104\n      tag_102\n      jump\t// in\n    tag_104:\n    tag_103:\n      eq\n        /* \"SimpleStorage.sol\":2349:2385  return state == ContractState.Active */\n      swap1\n      pop\n        /* \"SimpleStorage.sol\":2295:2389  function isActive() public view returns (bool) {... */\n      swap1\n      jump\t// out\n        /* \"SimpleStorage.sol\":251:283  uint256[] public favoriteNumbers */\n    tag_35:\n      0x02\n      dup2\n      dup2\n      sload\n      dup2\n      lt\n      tag_105\n      jumpi\n      0x00\n      dup1\n      revert\n    tag_105:\n      swap1\n      0x00\n      mstore\n      keccak256(0x00, 0x20)\n      add\n      0x00\n      swap2\n      pop\n      swap1\n      pop\n      sload\n      dup2\n      jump\t// out\n        /* \"SimpleStorage.sol\":1662:1769  function externalFunction() external pure returns (string memory) {... */\n    tag_38:\n        /* \"SimpleStorage.sol\":1713:1726  string memory */\n      0x60\n        /* \"SimpleStorage.sol\":1739:1760  return \"Hello world!\" */\n      mload(0x40)\n      dup1\n      0x40\n      add\n      0x40\n      mstore\n      dup1\n      0x0c\n      dup2\n      mstore\n      0x20\n      add\n      0x48656c6c6f20776f726c64210000000000000000000000000000000000000000\n      dup2\n      mstore\n      pop\n      swap1\n      pop\n        /* \"SimpleStorage.sol\":1662:1769  function externalFunction() external pure returns (string memory) {... */\n      swap1\n      jump\t// out\n        /* \"SimpleStorage.sol\":215:244  uint256 public favoriteNumber */\n    tag_42:\n      sload(0x01)\n      dup2\n      jump\t// out\n        /* \"SimpleStorage.sol\":1997:2125  function addPerson(string memory _name, uint256 _favoriteNumber) public {... */\n    tag_47:\n        /* \"SimpleStorage.sol\":2106:2121  _favoriteNumber */\n      dup1\n        /* \"SimpleStorage.sol\":2076:2096  nameToFavoriteNumber */\n      0x00\n        /* \"SimpleStorage.sol\":2097:2102  _name */\n      dup4\n        /* \"SimpleStorage.sol\":2076:2103  nameToFavoriteNumber[_name] */\n      mload(0x40)\n      tag_109\n      swap2\n      swap1\n      tag_110\n      jump\t// in\n    tag_109:\n      swap1\n      dup2\n      mstore\n      0x20\n      add\n      mload(0x40)\n      dup1\n      swap2\n      sub\n      swap1\n      keccak256\n        /* \"SimpleStorage.sol\":2076:2121  nameToFavoriteNumber[_name] = _favoriteNumber */\n      dup2\n      swap1\n      sstore\n      pop\n        /* \"SimpleStorage.sol\":1997:2125  function addPerson(string memory _name, uint256 _favoriteNumber) public {... */\n      pop\n      pop\n      jump\t// out\n        /* \"SimpleStorage.sol\":2602:2828  function processString(string calldata inputString) public pure returns (string memory) {... */\n    tag_51:\n        /* \"SimpleStorage.sol\":2675:2688  string memory */\n      0x60\n        /* \"SimpleStorage.sol\":2701:2730  string memory processedString */\n      0x00\n        /* \"SimpleStorage.sol\":2772:2783  inputString */\n      dup4\n      dup4\n        /* \"SimpleStorage.sol\":2740:2784  abi.encodePacked(\"Processed: \", inputString) */\n      add(0x20, mload(0x40))\n      tag_112\n      swap3\n      swap2\n      swap1\n      tag_113\n      jump\t// in\n    tag_112:\n      mload(0x40)\n      0x20\n      dup2\n      dup4\n      sub\n      sub\n      dup2\n      mstore\n      swap1\n      0x40\n      mstore\n        /* \"SimpleStorage.sol\":2701:2785  string memory processedString = string(abi.encodePacked(\"Processed: \", inputString)) */\n      swap1\n      pop\n        /* \"SimpleStorage.sol\":2805:2820  processedString */\n      dup1\n        /* \"SimpleStorage.sol\":2798:2820  return processedString */\n      swap2\n      pop\n      pop\n        /* \"SimpleStorage.sol\":2602:2828  function processString(string calldata inputString) public pure returns (string memory) {... */\n      swap3\n      swap2\n      pop\n      pop\n      jump\t// out\n        /* \"SimpleStorage.sol\":1542:1656  function callInternalFunction() public pure returns (string memory) {... */\n    tag_54:\n        /* \"SimpleStorage.sol\":1595:1608  string memory */\n      0x60\n        /* \"SimpleStorage.sol\":1628:1646  internalFunction() */\n      tag_115\n        /* \"SimpleStorage.sol\":1628:1644  internalFunction */\n      tag_116\n        /* \"SimpleStorage.sol\":1628:1646  internalFunction() */\n      jump\t// in\n    tag_115:\n        /* \"SimpleStorage.sol\":1621:1646  return internalFunction() */\n      swap1\n      pop\n        /* \"SimpleStorage.sol\":1542:1656  function callInternalFunction() public pure returns (string memory) {... */\n      swap1\n      jump\t// out\n        /* \"SimpleStorage.sol\":90:144  mapping(string => uint256) public nameToFavoriteNumber */\n    tag_59:\n      0x00\n      dup2\n      dup1\n      mload\n      0x20\n      dup2\n      add\n      dup3\n      add\n      dup1\n      mload\n      dup5\n      dup3\n      mstore\n      0x20\n      dup4\n      add\n      0x20\n      dup6\n      add\n      keccak256\n      dup2\n      dup4\n      mstore\n      dup1\n      swap6\n      pop\n      pop\n      pop\n      pop\n      pop\n      pop\n      0x00\n      swap2\n      pop\n      swap1\n      pop\n      sload\n      dup2\n      jump\t// out\n        /* \"SimpleStorage.sol\":2131:2205  function activateContract() public {... */\n    tag_62:\n        /* \"SimpleStorage.sol\":2181:2201  ContractState.Active */\n      0x00\n        /* \"SimpleStorage.sol\":2173:2178  state */\n      0x04\n      0x00\n        /* \"SimpleStorage.sol\":2173:2201  state = ContractState.Active */\n      0x0100\n      exp\n      dup2\n      sload\n      dup2\n      0xff\n      mul\n      not\n      and\n      swap1\n      dup4\n      0x01\n      dup2\n      gt\n      iszero\n      tag_118\n      jumpi\n      tag_119\n      tag_102\n      jump\t// in\n    tag_119:\n    tag_118:\n      mul\n      or\n      swap1\n      sstore\n      pop\n        /* \"SimpleStorage.sol\":2131:2205  function activateContract() public {... */\n      jump\t// out\n        /* \"SimpleStorage.sol\":546:568  Person[] public people */\n    tag_65:\n      0x03\n      dup2\n      dup2\n      sload\n      dup2\n      lt\n      tag_120\n      jumpi\n      0x00\n      dup1\n      revert\n    tag_120:\n      swap1\n      0x00\n      mstore\n      keccak256(0x00, 0x20)\n      swap1\n      0x02\n      mul\n      add\n      0x00\n      swap2\n      pop\n      swap1\n      pop\n      dup1\n      0x00\n      add\n      dup1\n      sload\n      tag_122\n      swap1\n      tag_123\n      jump\t// in\n    tag_122:\n      dup1\n      0x1f\n      add\n      0x20\n      dup1\n      swap2\n      div\n      mul\n      0x20\n      add\n      mload(0x40)\n      swap1\n      dup2\n      add\n      0x40\n      mstore\n      dup1\n      swap3\n      swap2\n      swap1\n      dup2\n      dup2\n      mstore\n      0x20\n      add\n      dup3\n      dup1\n      sload\n      tag_124\n      swap1\n      tag_123\n      jump\t// in\n    tag_124:\n      dup1\n      iszero\n      tag_125\n      jumpi\n      dup1\n      0x1f\n      lt\n      tag_126\n      jumpi\n      0x0100\n      dup1\n      dup4\n      sload\n      div\n      mul\n      dup4\n      mstore\n      swap2\n      0x20\n      add\n      swap2\n      jump(tag_125)\n    tag_126:\n      dup3\n      add\n      swap2\n      swap1\n      0x00\n      mstore\n      keccak256(0x00, 0x20)\n      swap1\n    tag_127:\n      dup2\n      sload\n      dup2\n      mstore\n      swap1\n      0x01\n      add\n      swap1\n      0x20\n      add\n      dup1\n      dup4\n      gt\n      tag_127\n      jumpi\n      dup3\n      swap1\n      sub\n      0x1f\n      and\n      dup3\n      add\n      swap2\n    tag_125:\n      pop\n      pop\n      pop\n      pop\n      pop\n      swap1\n      dup1\n      0x01\n      add\n      sload\n      swap1\n      pop\n      dup3\n      jump\t// out\n        /* \"SimpleStorage.sol\":1103:1198  function getFavoriteNumber() public view returns (uint256) {... */\n    tag_69:\n        /* \"SimpleStorage.sol\":1153:1160  uint256 */\n      0x00\n        /* \"SimpleStorage.sol\":1178:1192  favoriteNumber */\n      sload(0x01)\n        /* \"SimpleStorage.sol\":1171:1192  return favoriteNumber */\n      swap1\n      pop\n        /* \"SimpleStorage.sol\":1103:1198  function getFavoriteNumber() public view returns (uint256) {... */\n      swap1\n      jump\t// out\n        /* \"SimpleStorage.sol\":1900:1991  function addFavoriteNumber(uint256 _number) public {... */\n    tag_73:\n        /* \"SimpleStorage.sol\":1958:1973  favoriteNumbers */\n      0x02\n        /* \"SimpleStorage.sol\":1979:1986  _number */\n      dup2\n        /* \"SimpleStorage.sol\":1958:1987  favoriteNumbers.push(_number) */\n      swap1\n      dup1\n      0x01\n      dup2\n      sload\n      add\n      dup1\n      dup3\n      sstore\n      dup1\n      swap2\n      pop\n      pop\n      0x01\n      swap1\n      sub\n      swap1\n      0x00\n      mstore\n      keccak256(0x00, 0x20)\n      add\n      0x00\n      swap1\n      swap2\n      swap1\n      swap2\n      swap1\n      swap2\n      pop\n      sstore\n        /* \"SimpleStorage.sol\":1900:1991  function addFavoriteNumber(uint256 _number) public {... */\n      pop\n      jump\t// out\n        /* \"SimpleStorage.sol\":931:1095  function storeNumber(uint256 _favoriteNumber)   public {... */\n    tag_76:\n        /* \"SimpleStorage.sol\":1014:1029  _favoriteNumber */\n      dup1\n        /* \"SimpleStorage.sol\":997:1011  favoriteNumber */\n      0x01\n        /* \"SimpleStorage.sol\":997:1029  favoriteNumber = _favoriteNumber */\n      dup2\n      swap1\n      sstore\n      pop\n        /* \"SimpleStorage.sol\":1045:1087  NumberUpdated(_favoriteNumber, msg.sender) */\n      0xe5f28171f43fc54876f02589c23cc70d19e06f868cc3811c456e8c61c296a27e\n        /* \"SimpleStorage.sol\":1059:1074  _favoriteNumber */\n      dup2\n        /* \"SimpleStorage.sol\":1076:1086  msg.sender */\n      caller\n        /* \"SimpleStorage.sol\":1045:1087  NumberUpdated(_favoriteNumber, msg.sender) */\n      mload(0x40)\n      tag_132\n      swap3\n      swap2\n      swap1\n      tag_133\n      jump\t// in\n    tag_132:\n      mload(0x40)\n      dup1\n      swap2\n      sub\n      swap1\n      log1\n        /* \"SimpleStorage.sol\":931:1095  function storeNumber(uint256 _favoriteNumber)   public {... */\n      pop\n      jump\t// out\n        /* \"SimpleStorage.sol\":2211:2289  function deactivateContract() public {... */\n    tag_78:\n        /* \"SimpleStorage.sol\":2263:2285  ContractState.Inactive */\n      0x01\n        /* \"SimpleStorage.sol\":2255:2260  state */\n      0x04\n      0x00\n        /* \"SimpleStorage.sol\":2255:2285  state = ContractState.Inactive */\n      0x0100\n      exp\n      dup2\n      sload\n      dup2\n      0xff\n      mul\n      not\n      and\n      swap1\n      dup4\n      0x01\n      dup2\n      gt\n      iszero\n      tag_135\n      jumpi\n      tag_136\n      tag_102\n      jump\t// in\n    tag_136:\n    tag_135:\n      mul\n      or\n      swap1\n      sstore\n      pop\n        /* \"SimpleStorage.sol\":2211:2289  function deactivateContract() public {... */\n      jump\t// out\n        /* \"SimpleStorage.sol\":842:868  ContractState public state */\n    tag_80:\n      0x04\n      0x00\n      swap1\n      sload\n      swap1\n      0x0100\n      exp\n      swap1\n      div\n      0xff\n      and\n      dup2\n      jump\t// out\n        /* \"SimpleStorage.sol\":1776:1894  function testExternalFunction() public view returns (string memory) {... */\n    tag_84:\n        /* \"SimpleStorage.sol\":1829:1842  string memory */\n      0x60\n        /* \"SimpleStorage.sol\":1862:1866  this */\n      address\n        /* \"SimpleStorage.sol\":1862:1883  this.externalFunction */\n      0xffffffffffffffffffffffffffffffffffffffff\n      and\n      0x3a32b549\n        /* \"SimpleStorage.sol\":1862:1885  this.externalFunction() */\n      mload(0x40)\n      dup2\n      0xffffffff\n      and\n      0xe0\n      shl\n      dup2\n      mstore\n      0x04\n      add\n      0x00\n      mload(0x40)\n      dup1\n      dup4\n      sub\n      dup2\n      dup7\n      gas\n      staticcall\n      iszero\n      dup1\n      iszero\n      tag_139\n      jumpi\n      returndatasize\n      0x00\n      dup1\n      returndatacopy\n      revert(0x00, returndatasize)\n    tag_139:\n      pop\n      pop\n      pop\n      pop\n      mload(0x40)\n      returndatasize\n      0x00\n      dup3\n      returndatacopy\n      returndatasize\n      not(0x1f)\n      0x1f\n      dup3\n      add\n      and\n      dup3\n      add\n      dup1\n      0x40\n      mstore\n      pop\n      dup2\n      add\n      swap1\n      tag_140\n      swap2\n      swap1\n      tag_141\n      jump\t// in\n    tag_140:\n        /* \"SimpleStorage.sol\":1855:1885  return this.externalFunction() */\n      swap1\n      pop\n        /* \"SimpleStorage.sol\":1776:1894  function testExternalFunction() public view returns (string memory) {... */\n      swap1\n      jump\t// out\n        /* \"SimpleStorage.sol\":2395:2590  function MemoryVariableCalculation(uint256 a, uint256 b) public pure returns (uint256) {... */\n    tag_89:\n        /* \"SimpleStorage.sol\":2473:2480  uint256 */\n      0x00\n        /* \"SimpleStorage.sol\":2493:2507  uint256 result */\n      dup1\n        /* \"SimpleStorage.sol\":2533:2534  b */\n      dup3\n        /* \"SimpleStorage.sol\":2529:2530  a */\n      dup5\n        /* \"SimpleStorage.sol\":2529:2534  a + b */\n      tag_143\n      swap2\n      swap1\n      tag_96\n      jump\t// in\n    tag_143:\n        /* \"SimpleStorage.sol\":2520:2534  result = a + b */\n      swap1\n      pop\n        /* \"SimpleStorage.sol\":2555:2556  2 */\n      0x02\n        /* \"SimpleStorage.sol\":2545:2556  result *= 2 */\n      dup2\n      tag_144\n      swap2\n      swap1\n      tag_145\n      jump\t// in\n    tag_144:\n      swap1\n      pop\n        /* \"SimpleStorage.sol\":2576:2582  result */\n      dup1\n        /* \"SimpleStorage.sol\":2569:2582  return result */\n      swap2\n      pop\n      pop\n        /* \"SimpleStorage.sol\":2395:2590  function MemoryVariableCalculation(uint256 a, uint256 b) public pure returns (uint256) {... */\n      swap3\n      swap2\n      pop\n      pop\n      jump\t// out\n        /* \"SimpleStorage.sol\":1401:1536  function internalFunction() internal pure returns (string memory) {... */\n    tag_116:\n        /* \"SimpleStorage.sol\":1452:1465  string memory */\n      0x60\n        /* \"SimpleStorage.sol\":1478:1527  return \"Hello world! If it works do not touch it\" */\n      mload(0x40)\n      dup1\n      0x60\n      add\n      0x40\n      mstore\n      dup1\n      0x28\n      dup2\n      mstore\n      0x20\n      add\n      data_c8fa5b9f7bb8a92a49c343791d396806f7e6e8c44d857ba57537b35182d3829f\n      0x28\n      swap2\n      codecopy\n      swap1\n      pop\n        /* \"SimpleStorage.sol\":1401:1536  function internalFunction() internal pure returns (string memory) {... */\n      swap1\n      jump\t// out\n        /* \"#utility.yul\":7:84   */\n    tag_147:\n        /* \"#utility.yul\":44:51   */\n      0x00\n        /* \"#utility.yul\":73:78   */\n      dup2\n        /* \"#utility.yul\":62:78   */\n      swap1\n      pop\n        /* \"#utility.yul\":7:84   */\n      swap2\n      swap1\n      pop\n      jump\t// out\n        /* \"#utility.yul\":90:208   */\n    tag_148:\n        /* \"#utility.yul\":177:201   */\n      tag_192\n        /* \"#utility.yul\":195:200   */\n      dup2\n        /* \"#utility.yul\":177:201   */\n      tag_147\n      jump\t// in\n    tag_192:\n        /* \"#utility.yul\":172:175   */\n      dup3\n        /* \"#utility.yul\":165:202   */\n      mstore\n        /* \"#utility.yul\":90:208   */\n      pop\n      pop\n      jump\t// out\n        /* \"#utility.yul\":214:436   */\n    tag_27:\n        /* \"#utility.yul\":307:311   */\n      0x00\n        /* \"#utility.yul\":345:347   */\n      0x20\n        /* \"#utility.yul\":334:343   */\n      dup3\n        /* \"#utility.yul\":330:348   */\n      add\n        /* \"#utility.yul\":322:348   */\n      swap1\n      pop\n        /* \"#utility.yul\":358:429   */\n      tag_194\n        /* \"#utility.yul\":426:427   */\n      0x00\n        /* \"#utility.yul\":415:424   */\n      dup4\n        /* \"#utility.yul\":411:428   */\n      add\n        /* \"#utility.yul\":402:408   */\n      dup5\n        /* \"#utility.yul\":358:429   */\n      tag_148\n      jump\t// in\n    tag_194:\n        /* \"#utility.yul\":214:436   */\n      swap3\n      swap2\n      pop\n      pop\n      jump\t// out\n        /* \"#utility.yul\":442:532   */\n    tag_149:\n        /* \"#utility.yul\":476:483   */\n      0x00\n        /* \"#utility.yul\":519:524   */\n      dup2\n        /* \"#utility.yul\":512:525   */\n      iszero\n        /* \"#utility.yul\":505:526   */\n      iszero\n        /* \"#utility.yul\":494:526   */\n      swap1\n      pop\n        /* \"#utility.yul\":442:532   */\n      swap2\n      swap1\n      pop\n      jump\t// out\n        /* \"#utility.yul\":538:647   */\n    tag_150:\n        /* \"#utility.yul\":619:640   */\n      tag_197\n        /* \"#utility.yul\":634:639   */\n      dup2\n        /* \"#utility.yul\":619:640   */\n      tag_149\n      jump\t// in\n    tag_197:\n        /* \"#utility.yul\":614:617   */\n      dup3\n        /* \"#utility.yul\":607:641   */\n      mstore\n        /* \"#utility.yul\":538:647   */\n      pop\n      pop\n      jump\t// out\n        /* \"#utility.yul\":653:863   */\n    tag_31:\n        /* \"#utility.yul\":740:744   */\n      0x00\n        /* \"#utility.yul\":778:780   */\n      0x20\n        /* \"#utility.yul\":767:776   */\n      dup3\n        /* \"#utility.yul\":763:781   */\n      add\n        /* \"#utility.yul\":755:781   */\n      swap1\n      pop\n        /* \"#utility.yul\":791:856   */\n      tag_199\n        /* \"#utility.yul\":853:854   */\n      0x00\n        /* \"#utility.yul\":842:851   */\n      dup4\n        /* \"#utility.yul\":838:855   */\n      add\n        /* \"#utility.yul\":829:835   */\n      dup5\n        /* \"#utility.yul\":791:856   */\n      tag_150\n      jump\t// in\n    tag_199:\n        /* \"#utility.yul\":653:863   */\n      swap3\n      swap2\n      pop\n      pop\n      jump\t// out\n        /* \"#utility.yul\":869:944   */\n    tag_151:\n        /* \"#utility.yul\":902:908   */\n      0x00\n        /* \"#utility.yul\":935:937   */\n      0x40\n        /* \"#utility.yul\":929:938   */\n      mload\n        /* \"#utility.yul\":919:938   */\n      swap1\n      pop\n        /* \"#utility.yul\":869:944   */\n      swap1\n      jump\t// out\n        /* \"#utility.yul\":950:1067   */\n    tag_152:\n        /* \"#utility.yul\":1059:1060   */\n      0x00\n        /* \"#utility.yul\":1056:1057   */\n      dup1\n        /* \"#utility.yul\":1049:1061   */\n      revert\n        /* \"#utility.yul\":1073:1190   */\n    tag_153:\n        /* \"#utility.yul\":1182:1183   */\n      0x00\n        /* \"#utility.yul\":1179:1180   */\n      dup1\n        /* \"#utility.yul\":1172:1184   */\n      revert\n        /* \"#utility.yul\":1196:1318   */\n    tag_154:\n        /* \"#utility.yul\":1269:1293   */\n      tag_204\n        /* \"#utility.yul\":1287:1292   */\n      dup2\n        /* \"#utility.yul\":1269:1293   */\n      tag_147\n      jump\t// in\n    tag_204:\n        /* \"#utility.yul\":1262:1267   */\n      dup2\n        /* \"#utility.yul\":1259:1294   */\n      eq\n        /* \"#utility.yul\":1249:1312   */\n      tag_205\n      jumpi\n        /* \"#utility.yul\":1308:1309   */\n      0x00\n        /* \"#utility.yul\":1305:1306   */\n      dup1\n        /* \"#utility.yul\":1298:1310   */\n      revert\n        /* \"#utility.yul\":1249:1312   */\n    tag_205:\n        /* \"#utility.yul\":1196:1318   */\n      pop\n      jump\t// out\n        /* \"#utility.yul\":1324:1463   */\n    tag_155:\n        /* \"#utility.yul\":1370:1375   */\n      0x00\n        /* \"#utility.yul\":1408:1414   */\n      dup2\n        /* \"#utility.yul\":1395:1415   */\n      calldataload\n        /* \"#utility.yul\":1386:1415   */\n      swap1\n      pop\n        /* \"#utility.yul\":1424:1457   */\n      tag_207\n        /* \"#utility.yul\":1451:1456   */\n      dup2\n        /* \"#utility.yul\":1424:1457   */\n      tag_154\n      jump\t// in\n    tag_207:\n        /* \"#utility.yul\":1324:1463   */\n      swap3\n      swap2\n      pop\n      pop\n      jump\t// out\n        /* \"#utility.yul\":1469:1798   */\n    tag_34:\n        /* \"#utility.yul\":1528:1534   */\n      0x00\n        /* \"#utility.yul\":1577:1579   */\n      0x20\n        /* \"#utility.yul\":1565:1574   */\n      dup3\n        /* \"#utility.yul\":1556:1563   */\n      dup5\n        /* \"#utility.yul\":1552:1575   */\n      sub\n        /* \"#utility.yul\":1548:1580   */\n      slt\n        /* \"#utility.yul\":1545:1664   */\n      iszero\n      tag_209\n      jumpi\n        /* \"#utility.yul\":1583:1662   */\n      tag_210\n      tag_152\n      jump\t// in\n    tag_210:\n        /* \"#utility.yul\":1545:1664   */\n    tag_209:\n        /* \"#utility.yul\":1703:1704   */\n      0x00\n        /* \"#utility.yul\":1728:1781   */\n      tag_211\n        /* \"#utility.yul\":1773:1780   */\n      dup5\n        /* \"#utility.yul\":1764:1770   */\n      dup3\n        /* \"#utility.yul\":1753:1762   */\n      dup6\n        /* \"#utility.yul\":1749:1771   */\n      add\n        /* \"#utility.yul\":1728:1781   */\n      tag_155\n      jump\t// in\n    tag_211:\n        /* \"#utility.yul\":1718:1781   */\n      swap2\n      pop\n        /* \"#utility.yul\":1674:1791   */\n      pop\n        /* \"#utility.yul\":1469:1798   */\n      swap3\n      swap2\n      pop\n      pop\n      jump\t// out\n        /* \"#utility.yul\":1804:1903   */\n    tag_156:\n        /* \"#utility.yul\":1856:1862   */\n      0x00\n        /* \"#utility.yul\":1890:1895   */\n      dup2\n        /* \"#utility.yul\":1884:1896   */\n      mload\n        /* \"#utility.yul\":1874:1896   */\n      swap1\n      pop\n        /* \"#utility.yul\":1804:1903   */\n      swap2\n      swap1\n      pop\n      jump\t// out\n        /* \"#utility.yul\":1909:2078   */\n    tag_157:\n        /* \"#utility.yul\":1993:2004   */\n      0x00\n        /* \"#utility.yul\":2027:2033   */\n      dup3\n        /* \"#utility.yul\":2022:2025   */\n      dup3\n        /* \"#utility.yul\":2015:2034   */\n      mstore\n        /* \"#utility.yul\":2067:2071   */\n      0x20\n        /* \"#utility.yul\":2062:2065   */\n      dup3\n        /* \"#utility.yul\":2058:2072   */\n      add\n        /* \"#utility.yul\":2043:2072   */\n      swap1\n      pop\n        /* \"#utility.yul\":1909:2078   */\n      swap3\n      swap2\n      pop\n      pop\n      jump\t// out\n        /* \"#utility.yul\":2084:2223   */\n    tag_158:\n        /* \"#utility.yul\":2173:2179   */\n      dup3\n        /* \"#utility.yul\":2168:2171   */\n      dup2\n        /* \"#utility.yul\":2163:2166   */\n      dup4\n        /* \"#utility.yul\":2157:2180   */\n      mcopy\n        /* \"#utility.yul\":2214:2215   */\n      0x00\n        /* \"#utility.yul\":2205:2211   */\n      dup4\n        /* \"#utility.yul\":2200:2203   */\n      dup4\n        /* \"#utility.yul\":2196:2212   */\n      add\n        /* \"#utility.yul\":2189:2216   */\n      mstore\n        /* \"#utility.yul\":2084:2223   */\n      pop\n      pop\n      pop\n      jump\t// out\n        /* \"#utility.yul\":2229:2331   */\n    tag_159:\n        /* \"#utility.yul\":2270:2276   */\n      0x00\n        /* \"#utility.yul\":2321:2323   */\n      0x1f\n        /* \"#utility.yul\":2317:2324   */\n      not\n        /* \"#utility.yul\":2312:2314   */\n      0x1f\n        /* \"#utility.yul\":2305:2310   */\n      dup4\n        /* \"#utility.yul\":2301:2315   */\n      add\n        /* \"#utility.yul\":2297:2325   */\n      and\n        /* \"#utility.yul\":2287:2325   */\n      swap1\n      pop\n        /* \"#utility.yul\":2229:2331   */\n      swap2\n      swap1\n      pop\n      jump\t// out\n        /* \"#utility.yul\":2337:2714   */\n    tag_160:\n        /* \"#utility.yul\":2425:2428   */\n      0x00\n        /* \"#utility.yul\":2453:2492   */\n      tag_217\n        /* \"#utility.yul\":2486:2491   */\n      dup3\n        /* \"#utility.yul\":2453:2492   */\n      tag_156\n      jump\t// in\n    tag_217:\n        /* \"#utility.yul\":2508:2579   */\n      tag_218\n        /* \"#utility.yul\":2572:2578   */\n      dup2\n        /* \"#utility.yul\":2567:2570   */\n      dup6\n        /* \"#utility.yul\":2508:2579   */\n      tag_157\n      jump\t// in\n    tag_218:\n        /* \"#utility.yul\":2501:2579   */\n      swap4\n      pop\n        /* \"#utility.yul\":2588:2653   */\n      tag_219\n        /* \"#utility.yul\":2646:2652   */\n      dup2\n        /* \"#utility.yul\":2641:2644   */\n      dup6\n        /* \"#utility.yul\":2634:2638   */\n      0x20\n        /* \"#utility.yul\":2627:2632   */\n      dup7\n        /* \"#utility.yul\":2623:2639   */\n      add\n        /* \"#utility.yul\":2588:2653   */\n      tag_158\n      jump\t// in\n    tag_219:\n        /* \"#utility.yul\":2678:2707   */\n      tag_220\n        /* \"#utility.yul\":2700:2706   */\n      dup2\n        /* \"#utility.yul\":2678:2707   */\n      tag_159\n      jump\t// in\n    tag_220:\n        /* \"#utility.yul\":2673:2676   */\n      dup5\n        /* \"#utility.yul\":2669:2708   */\n      add\n        /* \"#utility.yul\":2662:2708   */\n      swap2\n      pop\n        /* \"#utility.yul\":2429:2714   */\n      pop\n        /* \"#utility.yul\":2337:2714   */\n      swap3\n      swap2\n      pop\n      pop\n      jump\t// out\n        /* \"#utility.yul\":2720:3033   */\n    tag_40:\n        /* \"#utility.yul\":2833:2837   */\n      0x00\n        /* \"#utility.yul\":2871:2873   */\n      0x20\n        /* \"#utility.yul\":2860:2869   */\n      dup3\n        /* \"#utility.yul\":2856:2874   */\n      add\n        /* \"#utility.yul\":2848:2874   */\n      swap1\n      pop\n        /* \"#utility.yul\":2920:2929   */\n      dup2\n        /* \"#utility.yul\":2914:2918   */\n      dup2\n        /* \"#utility.yul\":2910:2930   */\n      sub\n        /* \"#utility.yul\":2906:2907   */\n      0x00\n        /* \"#utility.yul\":2895:2904   */\n      dup4\n        /* \"#utility.yul\":2891:2908   */\n      add\n        /* \"#utility.yul\":2884:2931   */\n      mstore\n        /* \"#utility.yul\":2948:3026   */\n      tag_222\n        /* \"#utility.yul\":3021:3025   */\n      dup2\n        /* \"#utility.yul\":3012:3018   */\n      dup5\n        /* \"#utility.yul\":2948:3026   */\n      tag_160\n      jump\t// in\n    tag_222:\n        /* \"#utility.yul\":2940:3026   */\n      swap1\n      pop\n        /* \"#utility.yul\":2720:3033   */\n      swap3\n      swap2\n      pop\n      pop\n      jump\t// out\n        /* \"#utility.yul\":3039:3156   */\n    tag_161:\n        /* \"#utility.yul\":3148:3149   */\n      0x00\n        /* \"#utility.yul\":3145:3146   */\n      dup1\n        /* \"#utility.yul\":3138:3150   */\n      revert\n        /* \"#utility.yul\":3162:3279   */\n    tag_162:\n        /* \"#utility.yul\":3271:3272   */\n      0x00\n        /* \"#utility.yul\":3268:3269   */\n      dup1\n        /* \"#utility.yul\":3261:3273   */\n      revert\n        /* \"#utility.yul\":3285:3465   */\n    tag_163:\n        /* \"#utility.yul\":3333:3410   */\n      0x4e487b7100000000000000000000000000000000000000000000000000000000\n        /* \"#utility.yul\":3330:3331   */\n      0x00\n        /* \"#utility.yul\":3323:3411   */\n      mstore\n        /* \"#utility.yul\":3430:3434   */\n      0x41\n        /* \"#utility.yul\":3427:3428   */\n      0x04\n        /* \"#utility.yul\":3420:3435   */\n      mstore\n        /* \"#utility.yul\":3454:3458   */\n      0x24\n        /* \"#utility.yul\":3451:3452   */\n      0x00\n        /* \"#utility.yul\":3444:3459   */\n      revert\n        /* \"#utility.yul\":3471:3752   */\n    tag_164:\n        /* \"#utility.yul\":3554:3581   */\n      tag_227\n        /* \"#utility.yul\":3576:3580   */\n      dup3\n        /* \"#utility.yul\":3554:3581   */\n      tag_159\n      jump\t// in\n    tag_227:\n        /* \"#utility.yul\":3546:3552   */\n      dup2\n        /* \"#utility.yul\":3542:3582   */\n      add\n        /* \"#utility.yul\":3684:3690   */\n      dup2\n        /* \"#utility.yul\":3672:3682   */\n      dup2\n        /* \"#utility.yul\":3669:3691   */\n      lt\n        /* \"#utility.yul\":3648:3666   */\n      0xffffffffffffffff\n        /* \"#utility.yul\":3636:3646   */\n      dup3\n        /* \"#utility.yul\":3633:3667   */\n      gt\n        /* \"#utility.yul\":3630:3692   */\n      or\n        /* \"#utility.yul\":3627:3715   */\n      iszero\n      tag_228\n      jumpi\n        /* \"#utility.yul\":3695:3713   */\n      tag_229\n      tag_163\n      jump\t// in\n    tag_229:\n        /* \"#utility.yul\":3627:3715   */\n    tag_228:\n        /* \"#utility.yul\":3735:3745   */\n      dup1\n        /* \"#utility.yul\":3731:3733   */\n      0x40\n        /* \"#utility.yul\":3724:3746   */\n      mstore\n        /* \"#utility.yul\":3514:3752   */\n      pop\n        /* \"#utility.yul\":3471:3752   */\n      pop\n      pop\n      jump\t// out\n        /* \"#utility.yul\":3758:3887   */\n    tag_165:\n        /* \"#utility.yul\":3792:3798   */\n      0x00\n        /* \"#utility.yul\":3819:3839   */\n      tag_231\n      tag_151\n      jump\t// in\n    tag_231:\n        /* \"#utility.yul\":3809:3839   */\n      swap1\n      pop\n        /* \"#utility.yul\":3848:3881   */\n      tag_232\n        /* \"#utility.yul\":3876:3880   */\n      dup3\n        /* \"#utility.yul\":3868:3874   */\n      dup3\n        /* \"#utility.yul\":3848:3881   */\n      tag_164\n      jump\t// in\n    tag_232:\n        /* \"#utility.yul\":3758:3887   */\n      swap2\n      swap1\n      pop\n      jump\t// out\n        /* \"#utility.yul\":3893:4201   */\n    tag_166:\n        /* \"#utility.yul\":3955:3959   */\n      0x00\n        /* \"#utility.yul\":4045:4063   */\n      0xffffffffffffffff\n        /* \"#utility.yul\":4037:4043   */\n      dup3\n        /* \"#utility.yul\":4034:4064   */\n      gt\n        /* \"#utility.yul\":4031:4087   */\n      iszero\n      tag_234\n      jumpi\n        /* \"#utility.yul\":4067:4085   */\n      tag_235\n      tag_163\n      jump\t// in\n    tag_235:\n        /* \"#utility.yul\":4031:4087   */\n    tag_234:\n        /* \"#utility.yul\":4105:4134   */\n      tag_236\n        /* \"#utility.yul\":4127:4133   */\n      dup3\n        /* \"#utility.yul\":4105:4134   */\n      tag_159\n      jump\t// in\n    tag_236:\n        /* \"#utility.yul\":4097:4134   */\n      swap1\n      pop\n        /* \"#utility.yul\":4189:4193   */\n      0x20\n        /* \"#utility.yul\":4183:4187   */\n      dup2\n        /* \"#utility.yul\":4179:4194   */\n      add\n        /* \"#utility.yul\":4171:4194   */\n      swap1\n      pop\n        /* \"#utility.yul\":3893:4201   */\n      swap2\n      swap1\n      pop\n      jump\t// out\n        /* \"#utility.yul\":4207:4355   */\n    tag_167:\n        /* \"#utility.yul\":4305:4311   */\n      dup3\n        /* \"#utility.yul\":4300:4303   */\n      dup2\n        /* \"#utility.yul\":4295:4298   */\n      dup4\n        /* \"#utility.yul\":4282:4312   */\n      calldatacopy\n        /* \"#utility.yul\":4346:4347   */\n      0x00\n        /* \"#utility.yul\":4337:4343   */\n      dup4\n        /* \"#utility.yul\":4332:4335   */\n      dup4\n        /* \"#utility.yul\":4328:4344   */\n      add\n        /* \"#utility.yul\":4321:4348   */\n      mstore\n        /* \"#utility.yul\":4207:4355   */\n      pop\n      pop\n      pop\n      jump\t// out\n        /* \"#utility.yul\":4361:4786   */\n    tag_168:\n        /* \"#utility.yul\":4439:4444   */\n      0x00\n        /* \"#utility.yul\":4464:4530   */\n      tag_239\n        /* \"#utility.yul\":4480:4529   */\n      tag_240\n        /* \"#utility.yul\":4522:4528   */\n      dup5\n        /* \"#utility.yul\":4480:4529   */\n      tag_166\n      jump\t// in\n    tag_240:\n        /* \"#utility.yul\":4464:4530   */\n      tag_165\n      jump\t// in\n    tag_239:\n        /* \"#utility.yul\":4455:4530   */\n      swap1\n      pop\n        /* \"#utility.yul\":4553:4559   */\n      dup3\n        /* \"#utility.yul\":4546:4551   */\n      dup2\n        /* \"#utility.yul\":4539:4560   */\n      mstore\n        /* \"#utility.yul\":4591:4595   */\n      0x20\n        /* \"#utility.yul\":4584:4589   */\n      dup2\n        /* \"#utility.yul\":4580:4596   */\n      add\n        /* \"#utility.yul\":4629:4632   */\n      dup5\n        /* \"#utility.yul\":4620:4626   */\n      dup5\n        /* \"#utility.yul\":4615:4618   */\n      dup5\n        /* \"#utility.yul\":4611:4627   */\n      add\n        /* \"#utility.yul\":4608:4633   */\n      gt\n        /* \"#utility.yul\":4605:4717   */\n      iszero\n      tag_241\n      jumpi\n        /* \"#utility.yul\":4636:4715   */\n      tag_242\n      tag_162\n      jump\t// in\n    tag_242:\n        /* \"#utility.yul\":4605:4717   */\n    tag_241:\n        /* \"#utility.yul\":4726:4780   */\n      tag_243\n        /* \"#utility.yul\":4773:4779   */\n      dup5\n        /* \"#utility.yul\":4768:4771   */\n      dup3\n        /* \"#utility.yul\":4763:4766   */\n      dup6\n        /* \"#utility.yul\":4726:4780   */\n      tag_167\n      jump\t// in\n    tag_243:\n        /* \"#utility.yul\":4445:4786   */\n      pop\n        /* \"#utility.yul\":4361:4786   */\n      swap4\n      swap3\n      pop\n      pop\n      pop\n      jump\t// out\n        /* \"#utility.yul\":4806:5146   */\n    tag_169:\n        /* \"#utility.yul\":4862:4867   */\n      0x00\n        /* \"#utility.yul\":4911:4914   */\n      dup3\n        /* \"#utility.yul\":4904:4908   */\n      0x1f\n        /* \"#utility.yul\":4896:4902   */\n      dup4\n        /* \"#utility.yul\":4892:4909   */\n      add\n        /* \"#utility.yul\":4888:4915   */\n      slt\n        /* \"#utility.yul\":4878:5000   */\n      tag_245\n      jumpi\n        /* \"#utility.yul\":4919:4998   */\n      tag_246\n      tag_161\n      jump\t// in\n    tag_246:\n        /* \"#utility.yul\":4878:5000   */\n    tag_245:\n        /* \"#utility.yul\":5036:5042   */\n      dup2\n        /* \"#utility.yul\":5023:5043   */\n      calldataload\n        /* \"#utility.yul\":5061:5140   */\n      tag_247\n        /* \"#utility.yul\":5136:5139   */\n      dup5\n        /* \"#utility.yul\":5128:5134   */\n      dup3\n        /* \"#utility.yul\":5121:5125   */\n      0x20\n        /* \"#utility.yul\":5113:5119   */\n      dup7\n        /* \"#utility.yul\":5109:5126   */\n      add\n        /* \"#utility.yul\":5061:5140   */\n      tag_168\n      jump\t// in\n    tag_247:\n        /* \"#utility.yul\":5052:5140   */\n      swap2\n      pop\n        /* \"#utility.yul\":4868:5146   */\n      pop\n        /* \"#utility.yul\":4806:5146   */\n      swap3\n      swap2\n      pop\n      pop\n      jump\t// out\n        /* \"#utility.yul\":5152:5806   */\n    tag_46:\n        /* \"#utility.yul\":5230:5236   */\n      0x00\n        /* \"#utility.yul\":5238:5244   */\n      dup1\n        /* \"#utility.yul\":5287:5289   */\n      0x40\n        /* \"#utility.yul\":5275:5284   */\n      dup4\n        /* \"#utility.yul\":5266:5273   */\n      dup6\n        /* \"#utility.yul\":5262:5285   */\n      sub\n        /* \"#utility.yul\":5258:5290   */\n      slt\n        /* \"#utility.yul\":5255:5374   */\n      iszero\n      tag_249\n      jumpi\n        /* \"#utility.yul\":5293:5372   */\n      tag_250\n      tag_152\n      jump\t// in\n    tag_250:\n        /* \"#utility.yul\":5255:5374   */\n    tag_249:\n        /* \"#utility.yul\":5441:5442   */\n      0x00\n        /* \"#utility.yul\":5430:5439   */\n      dup4\n        /* \"#utility.yul\":5426:5443   */\n      add\n        /* \"#utility.yul\":5413:5444   */\n      calldataload\n        /* \"#utility.yul\":5471:5489   */\n      0xffffffffffffffff\n        /* \"#utility.yul\":5463:5469   */\n      dup2\n        /* \"#utility.yul\":5460:5490   */\n      gt\n        /* \"#utility.yul\":5457:5574   */\n      iszero\n      tag_251\n      jumpi\n        /* \"#utility.yul\":5493:5572   */\n      tag_252\n      tag_153\n      jump\t// in\n    tag_252:\n        /* \"#utility.yul\":5457:5574   */\n    tag_251:\n        /* \"#utility.yul\":5598:5661   */\n      tag_253\n        /* \"#utility.yul\":5653:5660   */\n      dup6\n        /* \"#utility.yul\":5644:5650   */\n      dup3\n        /* \"#utility.yul\":5633:5642   */\n      dup7\n        /* \"#utility.yul\":5629:5651   */\n      add\n        /* \"#utility.yul\":5598:5661   */\n      tag_169\n      jump\t// in\n    tag_253:\n        /* \"#utility.yul\":5588:5661   */\n      swap3\n      pop\n        /* \"#utility.yul\":5384:5671   */\n      pop\n        /* \"#utility.yul\":5710:5712   */\n      0x20\n        /* \"#utility.yul\":5736:5789   */\n      tag_254\n        /* \"#utility.yul\":5781:5788   */\n      dup6\n        /* \"#utility.yul\":5772:5778   */\n      dup3\n        /* \"#utility.yul\":5761:5770   */\n      dup7\n        /* \"#utility.yul\":5757:5779   */\n      add\n        /* \"#utility.yul\":5736:5789   */\n      tag_155\n      jump\t// in\n    tag_254:\n        /* \"#utility.yul\":5726:5789   */\n      swap2\n      pop\n        /* \"#utility.yul\":5681:5799   */\n      pop\n        /* \"#utility.yul\":5152:5806   */\n      swap3\n      pop\n      swap3\n      swap1\n      pop\n      jump\t// out\n        /* \"#utility.yul\":5812:5929   */\n    tag_170:\n        /* \"#utility.yul\":5921:5922   */\n      0x00\n        /* \"#utility.yul\":5918:5919   */\n      dup1\n        /* \"#utility.yul\":5911:5923   */\n      revert\n        /* \"#utility.yul\":5935:6052   */\n    tag_171:\n        /* \"#utility.yul\":6044:6045   */\n      0x00\n        /* \"#utility.yul\":6041:6042   */\n      dup1\n        /* \"#utility.yul\":6034:6046   */\n      revert\n        /* \"#utility.yul\":6072:6625   */\n    tag_172:\n        /* \"#utility.yul\":6130:6138   */\n      0x00\n        /* \"#utility.yul\":6140:6146   */\n      dup1\n        /* \"#utility.yul\":6190:6193   */\n      dup4\n        /* \"#utility.yul\":6183:6187   */\n      0x1f\n        /* \"#utility.yul\":6175:6181   */\n      dup5\n        /* \"#utility.yul\":6171:6188   */\n      add\n        /* \"#utility.yul\":6167:6194   */\n      slt\n        /* \"#utility.yul\":6157:6279   */\n      tag_258\n      jumpi\n        /* \"#utility.yul\":6198:6277   */\n      tag_259\n      tag_161\n      jump\t// in\n    tag_259:\n        /* \"#utility.yul\":6157:6279   */\n    tag_258:\n        /* \"#utility.yul\":6311:6317   */\n      dup3\n        /* \"#utility.yul\":6298:6318   */\n      calldataload\n        /* \"#utility.yul\":6288:6318   */\n      swap1\n      pop\n        /* \"#utility.yul\":6341:6359   */\n      0xffffffffffffffff\n        /* \"#utility.yul\":6333:6339   */\n      dup2\n        /* \"#utility.yul\":6330:6360   */\n      gt\n        /* \"#utility.yul\":6327:6444   */\n      iszero\n      tag_260\n      jumpi\n        /* \"#utility.yul\":6363:6442   */\n      tag_261\n      tag_170\n      jump\t// in\n    tag_261:\n        /* \"#utility.yul\":6327:6444   */\n    tag_260:\n        /* \"#utility.yul\":6477:6481   */\n      0x20\n        /* \"#utility.yul\":6469:6475   */\n      dup4\n        /* \"#utility.yul\":6465:6482   */\n      add\n        /* \"#utility.yul\":6453:6482   */\n      swap2\n      pop\n        /* \"#utility.yul\":6531:6534   */\n      dup4\n        /* \"#utility.yul\":6523:6527   */\n      0x01\n        /* \"#utility.yul\":6515:6521   */\n      dup3\n        /* \"#utility.yul\":6511:6528   */\n      mul\n        /* \"#utility.yul\":6501:6509   */\n      dup4\n        /* \"#utility.yul\":6497:6529   */\n      add\n        /* \"#utility.yul\":6494:6535   */\n      gt\n        /* \"#utility.yul\":6491:6619   */\n      iszero\n      tag_262\n      jumpi\n        /* \"#utility.yul\":6538:6617   */\n      tag_263\n      tag_171\n      jump\t// in\n    tag_263:\n        /* \"#utility.yul\":6491:6619   */\n    tag_262:\n        /* \"#utility.yul\":6072:6625   */\n      swap3\n      pop\n      swap3\n      swap1\n      pop\n      jump\t// out\n        /* \"#utility.yul\":6631:7160   */\n    tag_50:\n        /* \"#utility.yul\":6702:6708   */\n      0x00\n        /* \"#utility.yul\":6710:6716   */\n      dup1\n        /* \"#utility.yul\":6759:6761   */\n      0x20\n        /* \"#utility.yul\":6747:6756   */\n      dup4\n        /* \"#utility.yul\":6738:6745   */\n      dup6\n        /* \"#utility.yul\":6734:6757   */\n      sub\n        /* \"#utility.yul\":6730:6762   */\n      slt\n        /* \"#utility.yul\":6727:6846   */\n      iszero\n      tag_265\n      jumpi\n        /* \"#utility.yul\":6765:6844   */\n      tag_266\n      tag_152\n      jump\t// in\n    tag_266:\n        /* \"#utility.yul\":6727:6846   */\n    tag_265:\n        /* \"#utility.yul\":6913:6914   */\n      0x00\n        /* \"#utility.yul\":6902:6911   */\n      dup4\n        /* \"#utility.yul\":6898:6915   */\n      add\n        /* \"#utility.yul\":6885:6916   */\n      calldataload\n        /* \"#utility.yul\":6943:6961   */\n      0xffffffffffffffff\n        /* \"#utility.yul\":6935:6941   */\n      dup2\n        /* \"#utility.yul\":6932:6962   */\n      gt\n        /* \"#utility.yul\":6929:7046   */\n      iszero\n      tag_267\n      jumpi\n        /* \"#utility.yul\":6965:7044   */\n      tag_268\n      tag_153\n      jump\t// in\n    tag_268:\n        /* \"#utility.yul\":6929:7046   */\n    tag_267:\n        /* \"#utility.yul\":7078:7143   */\n      tag_269\n        /* \"#utility.yul\":7135:7142   */\n      dup6\n        /* \"#utility.yul\":7126:7132   */\n      dup3\n        /* \"#utility.yul\":7115:7124   */\n      dup7\n        /* \"#utility.yul\":7111:7133   */\n      add\n        /* \"#utility.yul\":7078:7143   */\n      tag_172\n      jump\t// in\n    tag_269:\n        /* \"#utility.yul\":7060:7143   */\n      swap3\n      pop\n      swap3\n      pop\n        /* \"#utility.yul\":6856:7153   */\n      pop\n        /* \"#utility.yul\":6631:7160   */\n      swap3\n      pop\n      swap3\n      swap1\n      pop\n      jump\t// out\n        /* \"#utility.yul\":7166:7675   */\n    tag_58:\n        /* \"#utility.yul\":7235:7241   */\n      0x00\n        /* \"#utility.yul\":7284:7286   */\n      0x20\n        /* \"#utility.yul\":7272:7281   */\n      dup3\n        /* \"#utility.yul\":7263:7270   */\n      dup5\n        /* \"#utility.yul\":7259:7282   */\n      sub\n        /* \"#utility.yul\":7255:7287   */\n      slt\n        /* \"#utility.yul\":7252:7371   */\n      iszero\n      tag_271\n      jumpi\n        /* \"#utility.yul\":7290:7369   */\n      tag_272\n      tag_152\n      jump\t// in\n    tag_272:\n        /* \"#utility.yul\":7252:7371   */\n    tag_271:\n        /* \"#utility.yul\":7438:7439   */\n      0x00\n        /* \"#utility.yul\":7427:7436   */\n      dup3\n        /* \"#utility.yul\":7423:7440   */\n      add\n        /* \"#utility.yul\":7410:7441   */\n      calldataload\n        /* \"#utility.yul\":7468:7486   */\n      0xffffffffffffffff\n        /* \"#utility.yul\":7460:7466   */\n      dup2\n        /* \"#utility.yul\":7457:7487   */\n      gt\n        /* \"#utility.yul\":7454:7571   */\n      iszero\n      tag_273\n      jumpi\n        /* \"#utility.yul\":7490:7569   */\n      tag_274\n      tag_153\n      jump\t// in\n    tag_274:\n        /* \"#utility.yul\":7454:7571   */\n    tag_273:\n        /* \"#utility.yul\":7595:7658   */\n      tag_275\n        /* \"#utility.yul\":7650:7657   */\n      dup5\n        /* \"#utility.yul\":7641:7647   */\n      dup3\n        /* \"#utility.yul\":7630:7639   */\n      dup6\n        /* \"#utility.yul\":7626:7648   */\n      add\n        /* \"#utility.yul\":7595:7658   */\n      tag_169\n      jump\t// in\n    tag_275:\n        /* \"#utility.yul\":7585:7658   */\n      swap2\n      pop\n        /* \"#utility.yul\":7381:7668   */\n      pop\n        /* \"#utility.yul\":7166:7675   */\n      swap3\n      swap2\n      pop\n      pop\n      jump\t// out\n        /* \"#utility.yul\":7681:8104   */\n    tag_67:\n        /* \"#utility.yul\":7822:7826   */\n      0x00\n        /* \"#utility.yul\":7860:7862   */\n      0x40\n        /* \"#utility.yul\":7849:7858   */\n      dup3\n        /* \"#utility.yul\":7845:7863   */\n      add\n        /* \"#utility.yul\":7837:7863   */\n      swap1\n      pop\n        /* \"#utility.yul\":7909:7918   */\n      dup2\n        /* \"#utility.yul\":7903:7907   */\n      dup2\n        /* \"#utility.yul\":7899:7919   */\n      sub\n        /* \"#utility.yul\":7895:7896   */\n      0x00\n        /* \"#utility.yul\":7884:7893   */\n      dup4\n        /* \"#utility.yul\":7880:7897   */\n      add\n        /* \"#utility.yul\":7873:7920   */\n      mstore\n        /* \"#utility.yul\":7937:8015   */\n      tag_277\n        /* \"#utility.yul\":8010:8014   */\n      dup2\n        /* \"#utility.yul\":8001:8007   */\n      dup6\n        /* \"#utility.yul\":7937:8015   */\n      tag_160\n      jump\t// in\n    tag_277:\n        /* \"#utility.yul\":7929:8015   */\n      swap1\n      pop\n        /* \"#utility.yul\":8025:8097   */\n      tag_278\n        /* \"#utility.yul\":8093:8095   */\n      0x20\n        /* \"#utility.yul\":8082:8091   */\n      dup4\n        /* \"#utility.yul\":8078:8096   */\n      add\n        /* \"#utility.yul\":8069:8075   */\n      dup5\n        /* \"#utility.yul\":8025:8097   */\n      tag_148\n      jump\t// in\n    tag_278:\n        /* \"#utility.yul\":7681:8104   */\n      swap4\n      swap3\n      pop\n      pop\n      pop\n      jump\t// out\n        /* \"#utility.yul\":8110:8290   */\n    tag_102:\n        /* \"#utility.yul\":8158:8235   */\n      0x4e487b7100000000000000000000000000000000000000000000000000000000\n        /* \"#utility.yul\":8155:8156   */\n      0x00\n        /* \"#utility.yul\":8148:8236   */\n      mstore\n        /* \"#utility.yul\":8255:8259   */\n      0x21\n        /* \"#utility.yul\":8252:8253   */\n      0x04\n        /* \"#utility.yul\":8245:8260   */\n      mstore\n        /* \"#utility.yul\":8279:8283   */\n      0x24\n        /* \"#utility.yul\":8276:8277   */\n      0x00\n        /* \"#utility.yul\":8269:8284   */\n      revert\n        /* \"#utility.yul\":8296:8417   */\n    tag_173:\n        /* \"#utility.yul\":8385:8386   */\n      0x02\n        /* \"#utility.yul\":8378:8383   */\n      dup2\n        /* \"#utility.yul\":8375:8387   */\n      lt\n        /* \"#utility.yul\":8365:8411   */\n      tag_281\n      jumpi\n        /* \"#utility.yul\":8391:8409   */\n      tag_282\n      tag_102\n      jump\t// in\n    tag_282:\n        /* \"#utility.yul\":8365:8411   */\n    tag_281:\n        /* \"#utility.yul\":8296:8417   */\n      pop\n      jump\t// out\n        /* \"#utility.yul\":8423:8566   */\n    tag_174:\n        /* \"#utility.yul\":8476:8483   */\n      0x00\n        /* \"#utility.yul\":8505:8510   */\n      dup2\n        /* \"#utility.yul\":8494:8510   */\n      swap1\n      pop\n        /* \"#utility.yul\":8511:8560   */\n      tag_284\n        /* \"#utility.yul\":8554:8559   */\n      dup3\n        /* \"#utility.yul\":8511:8560   */\n      tag_173\n      jump\t// in\n    tag_284:\n        /* \"#utility.yul\":8423:8566   */\n      swap2\n      swap1\n      pop\n      jump\t// out\n        /* \"#utility.yul\":8572:8715   */\n    tag_175:\n        /* \"#utility.yul\":8636:8645   */\n      0x00\n        /* \"#utility.yul\":8669:8709   */\n      tag_286\n        /* \"#utility.yul\":8703:8708   */\n      dup3\n        /* \"#utility.yul\":8669:8709   */\n      tag_174\n      jump\t// in\n    tag_286:\n        /* \"#utility.yul\":8656:8709   */\n      swap1\n      pop\n        /* \"#utility.yul\":8572:8715   */\n      swap2\n      swap1\n      pop\n      jump\t// out\n        /* \"#utility.yul\":8721:8880   */\n    tag_176:\n        /* \"#utility.yul\":8822:8873   */\n      tag_288\n        /* \"#utility.yul\":8867:8872   */\n      dup2\n        /* \"#utility.yul\":8822:8873   */\n      tag_175\n      jump\t// in\n    tag_288:\n        /* \"#utility.yul\":8817:8820   */\n      dup3\n        /* \"#utility.yul\":8810:8874   */\n      mstore\n        /* \"#utility.yul\":8721:8880   */\n      pop\n      pop\n      jump\t// out\n        /* \"#utility.yul\":8886:9136   */\n    tag_82:\n        /* \"#utility.yul\":8993:8997   */\n      0x00\n        /* \"#utility.yul\":9031:9033   */\n      0x20\n        /* \"#utility.yul\":9020:9029   */\n      dup3\n        /* \"#utility.yul\":9016:9034   */\n      add\n        /* \"#utility.yul\":9008:9034   */\n      swap1\n      pop\n        /* \"#utility.yul\":9044:9129   */\n      tag_290\n        /* \"#utility.yul\":9126:9127   */\n      0x00\n        /* \"#utility.yul\":9115:9124   */\n      dup4\n        /* \"#utility.yul\":9111:9128   */\n      add\n        /* \"#utility.yul\":9102:9108   */\n      dup5\n        /* \"#utility.yul\":9044:9129   */\n      tag_176\n      jump\t// in\n    tag_290:\n        /* \"#utility.yul\":8886:9136   */\n      swap3\n      swap2\n      pop\n      pop\n      jump\t// out\n        /* \"#utility.yul\":9142:9616   */\n    tag_88:\n        /* \"#utility.yul\":9210:9216   */\n      0x00\n        /* \"#utility.yul\":9218:9224   */\n      dup1\n        /* \"#utility.yul\":9267:9269   */\n      0x40\n        /* \"#utility.yul\":9255:9264   */\n      dup4\n        /* \"#utility.yul\":9246:9253   */\n      dup6\n        /* \"#utility.yul\":9242:9265   */\n      sub\n        /* \"#utility.yul\":9238:9270   */\n      slt\n        /* \"#utility.yul\":9235:9354   */\n      iszero\n      tag_292\n      jumpi\n        /* \"#utility.yul\":9273:9352   */\n      tag_293\n      tag_152\n      jump\t// in\n    tag_293:\n        /* \"#utility.yul\":9235:9354   */\n    tag_292:\n        /* \"#utility.yul\":9393:9394   */\n      0x00\n        /* \"#utility.yul\":9418:9471   */\n      tag_294\n        /* \"#utility.yul\":9463:9470   */\n      dup6\n        /* \"#utility.yul\":9454:9460   */\n      dup3\n        /* \"#utility.yul\":9443:9452   */\n      dup7\n        /* \"#utility.yul\":9439:9461   */\n      add\n        /* \"#utility.yul\":9418:9471   */\n      tag_155\n      jump\t// in\n    tag_294:\n        /* \"#utility.yul\":9408:9471   */\n      swap3\n      pop\n        /* \"#utility.yul\":9364:9481   */\n      pop\n        /* \"#utility.yul\":9520:9522   */\n      0x20\n        /* \"#utility.yul\":9546:9599   */\n      tag_295\n        /* \"#utility.yul\":9591:9598   */\n      dup6\n        /* \"#utility.yul\":9582:9588   */\n      dup3\n        /* \"#utility.yul\":9571:9580   */\n      dup7\n        /* \"#utility.yul\":9567:9589   */\n      add\n        /* \"#utility.yul\":9546:9599   */\n      tag_155\n      jump\t// in\n    tag_295:\n        /* \"#utility.yul\":9536:9599   */\n      swap2\n      pop\n        /* \"#utility.yul\":9491:9609   */\n      pop\n        /* \"#utility.yul\":9142:9616   */\n      swap3\n      pop\n      swap3\n      swap1\n      pop\n      jump\t// out\n        /* \"#utility.yul\":9622:9802   */\n    tag_177:\n        /* \"#utility.yul\":9670:9747   */\n      0x4e487b7100000000000000000000000000000000000000000000000000000000\n        /* \"#utility.yul\":9667:9668   */\n      0x00\n        /* \"#utility.yul\":9660:9748   */\n      mstore\n        /* \"#utility.yul\":9767:9771   */\n      0x11\n        /* \"#utility.yul\":9764:9765   */\n      0x04\n        /* \"#utility.yul\":9757:9772   */\n      mstore\n        /* \"#utility.yul\":9791:9795   */\n      0x24\n        /* \"#utility.yul\":9788:9789   */\n      0x00\n        /* \"#utility.yul\":9781:9796   */\n      revert\n        /* \"#utility.yul\":9808:9999   */\n    tag_96:\n        /* \"#utility.yul\":9848:9851   */\n      0x00\n        /* \"#utility.yul\":9867:9887   */\n      tag_298\n        /* \"#utility.yul\":9885:9886   */\n      dup3\n        /* \"#utility.yul\":9867:9887   */\n      tag_147\n      jump\t// in\n    tag_298:\n        /* \"#utility.yul\":9862:9887   */\n      swap2\n      pop\n        /* \"#utility.yul\":9901:9921   */\n      tag_299\n        /* \"#utility.yul\":9919:9920   */\n      dup4\n        /* \"#utility.yul\":9901:9921   */\n      tag_147\n      jump\t// in\n    tag_299:\n        /* \"#utility.yul\":9896:9921   */\n      swap3\n      pop\n        /* \"#utility.yul\":9944:9945   */\n      dup3\n        /* \"#utility.yul\":9941:9942   */\n      dup3\n        /* \"#utility.yul\":9937:9946   */\n      add\n        /* \"#utility.yul\":9930:9946   */\n      swap1\n      pop\n        /* \"#utility.yul\":9965:9968   */\n      dup1\n        /* \"#utility.yul\":9962:9963   */\n      dup3\n        /* \"#utility.yul\":9959:9969   */\n      gt\n        /* \"#utility.yul\":9956:9992   */\n      iszero\n      tag_300\n      jumpi\n        /* \"#utility.yul\":9972:9990   */\n      tag_301\n      tag_177\n      jump\t// in\n    tag_301:\n        /* \"#utility.yul\":9956:9992   */\n    tag_300:\n        /* \"#utility.yul\":9808:9999   */\n      swap3\n      swap2\n      pop\n      pop\n      jump\t// out\n        /* \"#utility.yul\":10005:10238   */\n    tag_98:\n        /* \"#utility.yul\":10044:10047   */\n      0x00\n        /* \"#utility.yul\":10067:10091   */\n      tag_303\n        /* \"#utility.yul\":10085:10090   */\n      dup3\n        /* \"#utility.yul\":10067:10091   */\n      tag_147\n      jump\t// in\n    tag_303:\n        /* \"#utility.yul\":10058:10091   */\n      swap2\n      pop\n        /* \"#utility.yul\":10113:10179   */\n      0xffffffffffffffffffffffffffffffffffffffffffffffffffffffffffffffff\n        /* \"#utility.yul\":10106:10111   */\n      dup3\n        /* \"#utility.yul\":10103:10180   */\n      sub\n        /* \"#utility.yul\":10100:10203   */\n      tag_304\n      jumpi\n        /* \"#utility.yul\":10183:10201   */\n      tag_305\n      tag_177\n      jump\t// in\n    tag_305:\n        /* \"#utility.yul\":10100:10203   */\n    tag_304:\n        /* \"#utility.yul\":10230:10231   */\n      0x01\n        /* \"#utility.yul\":10223:10228   */\n      dup3\n        /* \"#utility.yul\":10219:10232   */\n      add\n        /* \"#utility.yul\":10212:10232   */\n      swap1\n      pop\n        /* \"#utility.yul\":10005:10238   */\n      swap2\n      swap1\n      pop\n      jump\t// out\n        /* \"#utility.yul\":10244:10392   */\n    tag_178:\n        /* \"#utility.yul\":10346:10357   */\n      0x00\n        /* \"#utility.yul\":10383:10386   */\n      dup2\n        /* \"#utility.yul\":10368:10386   */\n      swap1\n      pop\n        /* \"#utility.yul\":10244:10392   */\n      swap3\n      swap2\n      pop\n      pop\n      jump\t// out\n        /* \"#utility.yul\":10398:10788   */\n    tag_179:\n        /* \"#utility.yul\":10504:10507   */\n      0x00\n        /* \"#utility.yul\":10532:10571   */\n      tag_308\n        /* \"#utility.yul\":10565:10570   */\n      dup3\n        /* \"#utility.yul\":10532:10571   */\n      tag_156\n      jump\t// in\n    tag_308:\n        /* \"#utility.yul\":10587:10676   */\n      tag_309\n        /* \"#utility.yul\":10669:10675   */\n      dup2\n        /* \"#utility.yul\":10664:10667   */\n      dup6\n        /* \"#utility.yul\":10587:10676   */\n      tag_178\n      jump\t// in\n    tag_309:\n        /* \"#utility.yul\":10580:10676   */\n      swap4\n      pop\n        /* \"#utility.yul\":10685:10750   */\n      tag_310\n        /* \"#utility.yul\":10743:10749   */\n      dup2\n        /* \"#utility.yul\":10738:10741   */\n      dup6\n        /* \"#utility.yul\":10731:10735   */\n      0x20\n        /* \"#utility.yul\":10724:10729   */\n      dup7\n        /* \"#utility.yul\":10720:10736   */\n      add\n        /* \"#utility.yul\":10685:10750   */\n      tag_158\n      jump\t// in\n    tag_310:\n        /* \"#utility.yul\":10775:10781   */\n      dup1\n        /* \"#utility.yul\":10770:10773   */\n      dup5\n        /* \"#utility.yul\":10766:10782   */\n      add\n        /* \"#utility.yul\":10759:10782   */\n      swap2\n      pop\n        /* \"#utility.yul\":10508:10788   */\n      pop\n        /* \"#utility.yul\":10398:10788   */\n      swap3\n      swap2\n      pop\n      pop\n      jump\t// out\n        /* \"#utility.yul\":10794:11069   */\n    tag_110:\n        /* \"#utility.yul\":10926:10929   */\n      0x00\n        /* \"#utility.yul\":10948:11043   */\n      tag_312\n        /* \"#utility.yul\":11039:11042   */\n      dup3\n        /* \"#utility.yul\":11030:11036   */\n      dup5\n        /* \"#utility.yul\":10948:11043   */\n      tag_179\n      jump\t// in\n    tag_312:\n        /* \"#utility.yul\":10941:11043   */\n      swap2\n      pop\n        /* \"#utility.yul\":11060:11063   */\n      dup2\n        /* \"#utility.yul\":11053:11063   */\n      swap1\n      pop\n        /* \"#utility.yul\":10794:11069   */\n      swap3\n      swap2\n      pop\n      pop\n      jump\t// out\n        /* \"#utility.yul\":11075:11236   */\n    tag_180:\n        /* \"#utility.yul\":11215:11228   */\n      0x50726f6365737365643a20000000000000000000000000000000000000000000\n        /* \"#utility.yul\":11211:11212   */\n      0x00\n        /* \"#utility.yul\":11203:11209   */\n      dup3\n        /* \"#utility.yul\":11199:11213   */\n      add\n        /* \"#utility.yul\":11192:11229   */\n      mstore\n        /* \"#utility.yul\":11075:11236   */\n      pop\n      jump\t// out\n        /* \"#utility.yul\":11242:11644   */\n    tag_181:\n        /* \"#utility.yul\":11402:11405   */\n      0x00\n        /* \"#utility.yul\":11423:11508   */\n      tag_315\n        /* \"#utility.yul\":11505:11507   */\n      0x0b\n        /* \"#utility.yul\":11500:11503   */\n      dup4\n        /* \"#utility.yul\":11423:11508   */\n      tag_178\n      jump\t// in\n    tag_315:\n        /* \"#utility.yul\":11416:11508   */\n      swap2\n      pop\n        /* \"#utility.yul\":11517:11610   */\n      tag_316\n        /* \"#utility.yul\":11606:11609   */\n      dup3\n        /* \"#utility.yul\":11517:11610   */\n      tag_180\n      jump\t// in\n    tag_316:\n        /* \"#utility.yul\":11635:11637   */\n      0x0b\n        /* \"#utility.yul\":11630:11633   */\n      dup3\n        /* \"#utility.yul\":11626:11638   */\n      add\n        /* \"#utility.yul\":11619:11638   */\n      swap1\n      pop\n        /* \"#utility.yul\":11242:11644   */\n      swap2\n      swap1\n      pop\n      jump\t// out\n        /* \"#utility.yul\":11674:12004   */\n    tag_182:\n        /* \"#utility.yul\":11790:11793   */\n      0x00\n        /* \"#utility.yul\":11811:11900   */\n      tag_318\n        /* \"#utility.yul\":11893:11899   */\n      dup4\n        /* \"#utility.yul\":11888:11891   */\n      dup6\n        /* \"#utility.yul\":11811:11900   */\n      tag_178\n      jump\t// in\n    tag_318:\n        /* \"#utility.yul\":11804:11900   */\n      swap4\n      pop\n        /* \"#utility.yul\":11910:11966   */\n      tag_319\n        /* \"#utility.yul\":11959:11965   */\n      dup4\n        /* \"#utility.yul\":11954:11957   */\n      dup6\n        /* \"#utility.yul\":11947:11952   */\n      dup5\n        /* \"#utility.yul\":11910:11966   */\n      tag_167\n      jump\t// in\n    tag_319:\n        /* \"#utility.yul\":11991:11997   */\n      dup3\n        /* \"#utility.yul\":11986:11989   */\n      dup5\n        /* \"#utility.yul\":11982:11998   */\n      add\n        /* \"#utility.yul\":11975:11998   */\n      swap1\n      pop\n        /* \"#utility.yul\":11674:12004   */\n      swap4\n      swap3\n      pop\n      pop\n      pop\n      jump\t// out\n        /* \"#utility.yul\":12010:12571   */\n    tag_113:\n        /* \"#utility.yul\":12253:12256   */\n      0x00\n        /* \"#utility.yul\":12275:12423   */\n      tag_321\n        /* \"#utility.yul\":12419:12422   */\n      dup3\n        /* \"#utility.yul\":12275:12423   */\n      tag_181\n      jump\t// in\n    tag_321:\n        /* \"#utility.yul\":12268:12423   */\n      swap2\n      pop\n        /* \"#utility.yul\":12440:12545   */\n      tag_322\n        /* \"#utility.yul\":12541:12544   */\n      dup3\n        /* \"#utility.yul\":12532:12538   */\n      dup5\n        /* \"#utility.yul\":12524:12530   */\n      dup7\n        /* \"#utility.yul\":12440:12545   */\n      tag_182\n      jump\t// in\n    tag_322:\n        /* \"#utility.yul\":12433:12545   */\n      swap2\n      pop\n        /* \"#utility.yul\":12562:12565   */\n      dup2\n        /* \"#utility.yul\":12555:12565   */\n      swap1\n      pop\n        /* \"#utility.yul\":12010:12571   */\n      swap4\n      swap3\n      pop\n      pop\n      pop\n      jump\t// out\n        /* \"#utility.yul\":12577:12757   */\n    tag_183:\n        /* \"#utility.yul\":12625:12702   */\n      0x4e487b7100000000000000000000000000000000000000000000000000000000\n        /* \"#utility.yul\":12622:12623   */\n      0x00\n        /* \"#utility.yul\":12615:12703   */\n      mstore\n        /* \"#utility.yul\":12722:12726   */\n      0x22\n        /* \"#utility.yul\":12719:12720   */\n      0x04\n        /* \"#utility.yul\":12712:12727   */\n      mstore\n        /* \"#utility.yul\":12746:12750   */\n      0x24\n        /* \"#utility.yul\":12743:12744   */\n      0x00\n        /* \"#utility.yul\":12736:12751   */\n      revert\n        /* \"#utility.yul\":12763:13083   */\n    tag_123:\n        /* \"#utility.yul\":12807:12813   */\n      0x00\n        /* \"#utility.yul\":12844:12845   */\n      0x02\n        /* \"#utility.yul\":12838:12842   */\n      dup3\n        /* \"#utility.yul\":12834:12846   */\n      div\n        /* \"#utility.yul\":12824:12846   */\n      swap1\n      pop\n        /* \"#utility.yul\":12891:12892   */\n      0x01\n        /* \"#utility.yul\":12885:12889   */\n      dup3\n        /* \"#utility.yul\":12881:12893   */\n      and\n        /* \"#utility.yul\":12912:12930   */\n      dup1\n        /* \"#utility.yul\":12902:12983   */\n      tag_325\n      jumpi\n        /* \"#utility.yul\":12968:12972   */\n      0x7f\n        /* \"#utility.yul\":12960:12966   */\n      dup3\n        /* \"#utility.yul\":12956:12973   */\n      and\n        /* \"#utility.yul\":12946:12973   */\n      swap2\n      pop\n        /* \"#utility.yul\":12902:12983   */\n    tag_325:\n        /* \"#utility.yul\":13030:13032   */\n      0x20\n        /* \"#utility.yul\":13022:13028   */\n      dup3\n        /* \"#utility.yul\":13019:13033   */\n      lt\n        /* \"#utility.yul\":12999:13017   */\n      dup2\n        /* \"#utility.yul\":12996:13034   */\n      sub\n        /* \"#utility.yul\":12993:13077   */\n      tag_326\n      jumpi\n        /* \"#utility.yul\":13049:13067   */\n      tag_327\n      tag_183\n      jump\t// in\n    tag_327:\n        /* \"#utility.yul\":12993:13077   */\n    tag_326:\n        /* \"#utility.yul\":12814:13083   */\n      pop\n        /* \"#utility.yul\":12763:13083   */\n      swap2\n      swap1\n      pop\n      jump\t// out\n        /* \"#utility.yul\":13089:13215   */\n    tag_184:\n        /* \"#utility.yul\":13126:13133   */\n      0x00\n        /* \"#utility.yul\":13166:13208   */\n      0xffffffffffffffffffffffffffffffffffffffff\n        /* \"#utility.yul\":13159:13164   */\n      dup3\n        /* \"#utility.yul\":13155:13209   */\n      and\n        /* \"#utility.yul\":13144:13209   */\n      swap1\n      pop\n        /* \"#utility.yul\":13089:13215   */\n      swap2\n      swap1\n      pop\n      jump\t// out\n        /* \"#utility.yul\":13221:13317   */\n    tag_185:\n        /* \"#utility.yul\":13258:13265   */\n      0x00\n        /* \"#utility.yul\":13287:13311   */\n      tag_330\n        /* \"#utility.yul\":13305:13310   */\n      dup3\n        /* \"#utility.yul\":13287:13311   */\n      tag_184\n      jump\t// in\n    tag_330:\n        /* \"#utility.yul\":13276:13311   */\n      swap1\n      pop\n        /* \"#utility.yul\":13221:13317   */\n      swap2\n      swap1\n      pop\n      jump\t// out\n        /* \"#utility.yul\":13323:13441   */\n    tag_186:\n        /* \"#utility.yul\":13410:13434   */\n      tag_332\n        /* \"#utility.yul\":13428:13433   */\n      dup2\n        /* \"#utility.yul\":13410:13434   */\n      tag_185\n      jump\t// in\n    tag_332:\n        /* \"#utility.yul\":13405:13408   */\n      dup3\n        /* \"#utility.yul\":13398:13435   */\n      mstore\n        /* \"#utility.yul\":13323:13441   */\n      pop\n      pop\n      jump\t// out\n        /* \"#utility.yul\":13447:13779   */\n    tag_133:\n        /* \"#utility.yul\":13568:13572   */\n      0x00\n        /* \"#utility.yul\":13606:13608   */\n      0x40\n        /* \"#utility.yul\":13595:13604   */\n      dup3\n        /* \"#utility.yul\":13591:13609   */\n      add\n        /* \"#utility.yul\":13583:13609   */\n      swap1\n      pop\n        /* \"#utility.yul\":13619:13690   */\n      tag_334\n        /* \"#utility.yul\":13687:13688   */\n      0x00\n        /* \"#utility.yul\":13676:13685   */\n      dup4\n        /* \"#utility.yul\":13672:13689   */\n      add\n        /* \"#utility.yul\":13663:13669   */\n      dup6\n        /* \"#utility.yul\":13619:13690   */\n      tag_148\n      jump\t// in\n    tag_334:\n        /* \"#utility.yul\":13700:13772   */\n      tag_335\n        /* \"#utility.yul\":13768:13770   */\n      0x20\n        /* \"#utility.yul\":13757:13766   */\n      dup4\n        /* \"#utility.yul\":13753:13771   */\n      add\n        /* \"#utility.yul\":13744:13750   */\n      dup5\n        /* \"#utility.yul\":13700:13772   */\n      tag_186\n      jump\t// in\n    tag_335:\n        /* \"#utility.yul\":13447:13779   */\n      swap4\n      swap3\n      pop\n      pop\n      pop\n      jump\t// out\n        /* \"#utility.yul\":13785:14219   */\n    tag_187:\n        /* \"#utility.yul\":13874:13879   */\n      0x00\n        /* \"#utility.yul\":13899:13965   */\n      tag_337\n        /* \"#utility.yul\":13915:13964   */\n      tag_338\n        /* \"#utility.yul\":13957:13963   */\n      dup5\n        /* \"#utility.yul\":13915:13964   */\n      tag_166\n      jump\t// in\n    tag_338:\n        /* \"#utility.yul\":13899:13965   */\n      tag_165\n      jump\t// in\n    tag_337:\n        /* \"#utility.yul\":13890:13965   */\n      swap1\n      pop\n        /* \"#utility.yul\":13988:13994   */\n      dup3\n        /* \"#utility.yul\":13981:13986   */\n      dup2\n        /* \"#utility.yul\":13974:13995   */\n      mstore\n        /* \"#utility.yul\":14026:14030   */\n      0x20\n        /* \"#utility.yul\":14019:14024   */\n      dup2\n        /* \"#utility.yul\":14015:14031   */\n      add\n        /* \"#utility.yul\":14064:14067   */\n      dup5\n        /* \"#utility.yul\":14055:14061   */\n      dup5\n        /* \"#utility.yul\":14050:14053   */\n      dup5\n        /* \"#utility.yul\":14046:14062   */\n      add\n        /* \"#utility.yul\":14043:14068   */\n      gt\n        /* \"#utility.yul\":14040:14152   */\n      iszero\n      tag_339\n      jumpi\n        /* \"#utility.yul\":14071:14150   */\n      tag_340\n      tag_162\n      jump\t// in\n    tag_340:\n        /* \"#utility.yul\":14040:14152   */\n    tag_339:\n        /* \"#utility.yul\":14161:14213   */\n      tag_341\n        /* \"#utility.yul\":14206:14212   */\n      dup5\n        /* \"#utility.yul\":14201:14204   */\n      dup3\n        /* \"#utility.yul\":14196:14199   */\n      dup6\n        /* \"#utility.yul\":14161:14213   */\n      tag_158\n      jump\t// in\n    tag_341:\n        /* \"#utility.yul\":13880:14219   */\n      pop\n        /* \"#utility.yul\":13785:14219   */\n      swap4\n      swap3\n      pop\n      pop\n      pop\n      jump\t// out\n        /* \"#utility.yul\":14239:14594   */\n    tag_188:\n        /* \"#utility.yul\":14306:14311   */\n      0x00\n        /* \"#utility.yul\":14355:14358   */\n      dup3\n        /* \"#utility.yul\":14348:14352   */\n      0x1f\n        /* \"#utility.yul\":14340:14346   */\n      dup4\n        /* \"#utility.yul\":14336:14353   */\n      add\n        /* \"#utility.yul\":14332:14359   */\n      slt\n        /* \"#utility.yul\":14322:14444   */\n      tag_343\n      jumpi\n        /* \"#utility.yul\":14363:14442   */\n      tag_344\n      tag_161\n      jump\t// in\n    tag_344:\n        /* \"#utility.yul\":14322:14444   */\n    tag_343:\n        /* \"#utility.yul\":14473:14479   */\n      dup2\n        /* \"#utility.yul\":14467:14480   */\n      mload\n        /* \"#utility.yul\":14498:14588   */\n      tag_345\n        /* \"#utility.yul\":14584:14587   */\n      dup5\n        /* \"#utility.yul\":14576:14582   */\n      dup3\n        /* \"#utility.yul\":14569:14573   */\n      0x20\n        /* \"#utility.yul\":14561:14567   */\n      dup7\n        /* \"#utility.yul\":14557:14574   */\n      add\n        /* \"#utility.yul\":14498:14588   */\n      tag_187\n      jump\t// in\n    tag_345:\n        /* \"#utility.yul\":14489:14588   */\n      swap2\n      pop\n        /* \"#utility.yul\":14312:14594   */\n      pop\n        /* \"#utility.yul\":14239:14594   */\n      swap3\n      swap2\n      pop\n      pop\n      jump\t// out\n        /* \"#utility.yul\":14600:15124   */\n    tag_141:\n        /* \"#utility.yul\":14680:14686   */\n      0x00\n        /* \"#utility.yul\":14729:14731   */\n      0x20\n        /* \"#utility.yul\":14717:14726   */\n      dup3\n        /* \"#utility.yul\":14708:14715   */\n      dup5\n        /* \"#utility.yul\":14704:14727   */\n      sub\n        /* \"#utility.yul\":14700:14732   */\n      slt\n        /* \"#utility.yul\":14697:14816   */\n      iszero\n      tag_347\n      jumpi\n        /* \"#utility.yul\":14735:14814   */\n      tag_348\n      tag_152\n      jump\t// in\n    tag_348:\n        /* \"#utility.yul\":14697:14816   */\n    tag_347:\n        /* \"#utility.yul\":14876:14877   */\n      0x00\n        /* \"#utility.yul\":14865:14874   */\n      dup3\n        /* \"#utility.yul\":14861:14878   */\n      add\n        /* \"#utility.yul\":14855:14879   */\n      mload\n        /* \"#utility.yul\":14906:14924   */\n      0xffffffffffffffff\n        /* \"#utility.yul\":14898:14904   */\n      dup2\n        /* \"#utility.yul\":14895:14925   */\n      gt\n        /* \"#utility.yul\":14892:15009   */\n      iszero\n      tag_349\n      jumpi\n        /* \"#utility.yul\":14928:15007   */\n      tag_350\n      tag_153\n      jump\t// in\n    tag_350:\n        /* \"#utility.yul\":14892:15009   */\n    tag_349:\n        /* \"#utility.yul\":15033:15107   */\n      tag_351\n        /* \"#utility.yul\":15099:15106   */\n      dup5\n        /* \"#utility.yul\":15090:15096   */\n      dup3\n        /* \"#utility.yul\":15079:15088   */\n      dup6\n        /* \"#utility.yul\":15075:15097   */\n      add\n        /* \"#utility.yul\":15033:15107   */\n      tag_188\n      jump\t// in\n    tag_351:\n        /* \"#utility.yul\":15023:15107   */\n      swap2\n      pop\n        /* \"#utility.yul\":14826:15117   */\n      pop\n        /* \"#utility.yul\":14600:15124   */\n      swap3\n      swap2\n      pop\n      pop\n      jump\t// out\n        /* \"#utility.yul\":15130:15540   */\n    tag_145:\n        /* \"#utility.yul\":15170:15177   */\n      0x00\n        /* \"#utility.yul\":15193:15213   */\n      tag_353\n        /* \"#utility.yul\":15211:15212   */\n      dup3\n        /* \"#utility.yul\":15193:15213   */\n      tag_147\n      jump\t// in\n    tag_353:\n        /* \"#utility.yul\":15188:15213   */\n      swap2\n      pop\n        /* \"#utility.yul\":15227:15247   */\n      tag_354\n        /* \"#utility.yul\":15245:15246   */\n      dup4\n        /* \"#utility.yul\":15227:15247   */\n      tag_147\n      jump\t// in\n    tag_354:\n        /* \"#utility.yul\":15222:15247   */\n      swap3\n      pop\n        /* \"#utility.yul\":15282:15283   */\n      dup3\n        /* \"#utility.yul\":15279:15280   */\n      dup3\n        /* \"#utility.yul\":15275:15284   */\n      mul\n        /* \"#utility.yul\":15304:15334   */\n      tag_355\n        /* \"#utility.yul\":15322:15333   */\n      dup2\n        /* \"#utility.yul\":15304:15334   */\n      tag_147\n      jump\t// in\n    tag_355:\n        /* \"#utility.yul\":15293:15334   */\n      swap2\n      pop\n        /* \"#utility.yul\":15483:15484   */\n      dup3\n        /* \"#utility.yul\":15474:15481   */\n      dup3\n        /* \"#utility.yul\":15470:15485   */\n      div\n        /* \"#utility.yul\":15467:15468   */\n      dup5\n        /* \"#utility.yul\":15464:15486   */\n      eq\n        /* \"#utility.yul\":15444:15445   */\n      dup4\n        /* \"#utility.yul\":15437:15446   */\n      iszero\n        /* \"#utility.yul\":15417:15500   */\n      or\n        /* \"#utility.yul\":15394:15533   */\n      tag_356\n      jumpi\n        /* \"#utility.yul\":15513:15531   */\n      tag_357\n      tag_177\n      jump\t// in\n    tag_357:\n        /* \"#utility.yul\":15394:15533   */\n    tag_356:\n        /* \"#utility.yul\":15178:15540   */\n      pop\n        /* \"#utility.yul\":15130:15540   */\n      swap3\n      swap2\n      pop\n      pop\n      jump\t// out\n    stop\n    data_c8fa5b9f7bb8a92a49c343791d396806f7e6e8c44d857ba57537b35182d3829f 48656c6c6f20776f726c642120496620697420776f726b7320646f206e6f7420746f756368206974\n\n    auxdata: 0xa264697066735822122071477f0c3de054eabc67b4a51b16758b89904bb14bf93f1b0d31f46dec8c831764736f6c634300081a0033\n}\n",
				"bytecode": {
					"linkReferences": {},
					"object": "6080604052348015600e575f80fd5b50610f878061001c5f395ff3fe608060405234801561000f575f80fd5b5060043610610114575f3560e01c80638fda356d116100a0578063b63394181161006f578063b6339418146102cf578063bca353be146102eb578063c19d93fb146102f5578063e0819c9a14610313578063e894d1751461033157610114565b80638fda356d1461025a5780639e7a13ad14610264578063a621d15e14610295578063a7e1a364146102b357610114565b8063471f7cdf116100e7578063471f7cdf146101a25780636f760f41146101c05780637c216809146101dc5780638701f8ca1461020c5780638bab8dd51461022a57610114565b80630cd2636e1461011857806322f3e2d41461013657806329cd1d96146101545780633a32b54914610184575b5f80fd5b610120610361565b60405161012d9190610739565b60405180910390f35b61013e61039e565b60405161014b919061076c565b60405180910390f35b61016e600480360381019061016991906107c0565b6103d9565b60405161017b9190610739565b60405180910390f35b61018c6103f9565b604051610199919061085b565b60405180910390f35b6101aa610436565b6040516101b79190610739565b60405180910390f35b6101da60048036038101906101d591906109a7565b61043c565b005b6101f660048036038101906101f19190610a5e565b610462565b604051610203919061085b565b60405180910390f35b610214610493565b604051610221919061085b565b60405180910390f35b610244600480360381019061023f9190610aa9565b6104a2565b6040516102519190610739565b60405180910390f35b6102626104ce565b005b61027e600480360381019061027991906107c0565b6104f9565b60405161028c929190610af0565b60405180910390f35b61029d6105ae565b6040516102aa9190610739565b60405180910390f35b6102cd60048036038101906102c891906107c0565b6105b7565b005b6102e960048036038101906102e491906107c0565b6105e0565b005b6102f3610623565b005b6102fd61064f565b60405161030a9190610b91565b60405180910390f35b61031b610661565b604051610328919061085b565b60405180910390f35b61034b60048036038101906103469190610baa565b6106d8565b6040516103589190610739565b60405180910390f35b5f805f90505f600190505b60015481116103965780826103819190610c15565b9150808061038e90610c48565b91505061036c565b508091505090565b5f8060018111156103b2576103b1610b1e565b5b60045f9054906101000a900460ff1660018111156103d3576103d2610b1e565b5b14905090565b600281815481106103e8575f80fd5b905f5260205f20015f915090505481565b60606040518060400160405280600c81526020017f48656c6c6f20776f726c64210000000000000000000000000000000000000000815250905090565b60015481565b805f8360405161044c9190610cc9565b9081526020016040518091039020819055505050565b60605f8383604051602001610478929190610d4d565b60405160208183030381529060405290508091505092915050565b606061049d610701565b905090565b5f818051602081018201805184825260208301602085012081835280955050505050505f915090505481565b5f60045f6101000a81548160ff021916908360018111156104f2576104f1610b1e565b5b0217905550565b60038181548110610508575f80fd5b905f5260205f2090600202015f91509050805f01805461052790610d9d565b80601f016020809104026020016040519081016040528092919081815260200182805461055390610d9d565b801561059e5780601f106105755761010080835404028352916020019161059e565b820191905f5260205f20905b81548152906001019060200180831161058157829003601f168201915b5050505050908060010154905082565b5f600154905090565b600281908060018154018082558091505060019003905f5260205f20015f909190919091505550565b806001819055507fe5f28171f43fc54876f02589c23cc70d19e06f868cc3811c456e8c61c296a27e8133604051610618929190610e0c565b60405180910390a150565b600160045f6101000a81548160ff0219169083600181111561064857610647610b1e565b5b0217905550565b60045f9054906101000a900460ff1681565b60603073ffffffffffffffffffffffffffffffffffffffff16633a32b5496040518163ffffffff1660e01b81526004015f60405180830381865afa1580156106ab573d5f803e3d5ffd5b505050506040513d5f823e3d601f19601f820116820180604052508101906106d39190610ea1565b905090565b5f8082846106e69190610c15565b90506002816106f59190610ee8565b90508091505092915050565b6060604051806060016040528060288152602001610f2a60289139905090565b5f819050919050565b61073381610721565b82525050565b5f60208201905061074c5f83018461072a565b92915050565b5f8115159050919050565b61076681610752565b82525050565b5f60208201905061077f5f83018461075d565b92915050565b5f604051905090565b5f80fd5b5f80fd5b61079f81610721565b81146107a9575f80fd5b50565b5f813590506107ba81610796565b92915050565b5f602082840312156107d5576107d461078e565b5b5f6107e2848285016107ac565b91505092915050565b5f81519050919050565b5f82825260208201905092915050565b8281835e5f83830152505050565b5f601f19601f8301169050919050565b5f61082d826107eb565b61083781856107f5565b9350610847818560208601610805565b61085081610813565b840191505092915050565b5f6020820190508181035f8301526108738184610823565b905092915050565b5f80fd5b5f80fd5b7f4e487b71000000000000000000000000000000000000000000000000000000005f52604160045260245ffd5b6108b982610813565b810181811067ffffffffffffffff821117156108d8576108d7610883565b5b80604052505050565b5f6108ea610785565b90506108f682826108b0565b919050565b5f67ffffffffffffffff82111561091557610914610883565b5b61091e82610813565b9050602081019050919050565b828183375f83830152505050565b5f61094b610946846108fb565b6108e1565b9050828152602081018484840111156109675761096661087f565b5b61097284828561092b565b509392505050565b5f82601f83011261098e5761098d61087b565b5b813561099e848260208601610939565b91505092915050565b5f80604083850312156109bd576109bc61078e565b5b5f83013567ffffffffffffffff8111156109da576109d9610792565b5b6109e68582860161097a565b92505060206109f7858286016107ac565b9150509250929050565b5f80fd5b5f80fd5b5f8083601f840112610a1e57610a1d61087b565b5b8235905067ffffffffffffffff811115610a3b57610a3a610a01565b5b602083019150836001820283011115610a5757610a56610a05565b5b9250929050565b5f8060208385031215610a7457610a7361078e565b5b5f83013567ffffffffffffffff811115610a9157610a90610792565b5b610a9d85828601610a09565b92509250509250929050565b5f60208284031215610abe57610abd61078e565b5b5f82013567ffffffffffffffff811115610adb57610ada610792565b5b610ae78482850161097a565b91505092915050565b5f6040820190508181035f830152610b088185610823565b9050610b17602083018461072a565b9392505050565b7f4e487b71000000000000000000000000000000000000000000000000000000005f52602160045260245ffd5b60028110610b5c57610b5b610b1e565b5b50565b5f819050610b6c82610b4b565b919050565b5f610b7b82610b5f565b9050919050565b610b8b81610b71565b82525050565b5f602082019050610ba45f830184610b82565b92915050565b5f8060408385031215610bc057610bbf61078e565b5b5f610bcd858286016107ac565b9250506020610bde858286016107ac565b9150509250929050565b7f4e487b71000000000000000000000000000000000000000000000000000000005f52601160045260245ffd5b5f610c1f82610721565b9150610c2a83610721565b9250828201905080821115610c4257610c41610be8565b5b92915050565b5f610c5282610721565b91507fffffffffffffffffffffffffffffffffffffffffffffffffffffffffffffffff8203610c8457610c83610be8565b5b600182019050919050565b5f81905092915050565b5f610ca3826107eb565b610cad8185610c8f565b9350610cbd818560208601610805565b80840191505092915050565b5f610cd48284610c99565b915081905092915050565b7f50726f6365737365643a200000000000000000000000000000000000000000005f82015250565b5f610d13600b83610c8f565b9150610d1e82610cdf565b600b82019050919050565b5f610d348385610c8f565b9350610d4183858461092b565b82840190509392505050565b5f610d5782610d07565b9150610d64828486610d29565b91508190509392505050565b7f4e487b71000000000000000000000000000000000000000000000000000000005f52602260045260245ffd5b5f6002820490506001821680610db457607f821691505b602082108103610dc757610dc6610d70565b5b50919050565b5f73ffffffffffffffffffffffffffffffffffffffff82169050919050565b5f610df682610dcd565b9050919050565b610e0681610dec565b82525050565b5f604082019050610e1f5f83018561072a565b610e2c6020830184610dfd565b9392505050565b5f610e45610e40846108fb565b6108e1565b905082815260208101848484011115610e6157610e6061087f565b5b610e6c848285610805565b509392505050565b5f82601f830112610e8857610e8761087b565b5b8151610e98848260208601610e33565b91505092915050565b5f60208284031215610eb657610eb561078e565b5b5f82015167ffffffffffffffff811115610ed357610ed2610792565b5b610edf84828501610e74565b91505092915050565b5f610ef282610721565b9150610efd83610721565b9250828202610f0b81610721565b91508282048414831517610f2257610f21610be8565b5b509291505056fe48656c6c6f20776f726c642120496620697420776f726b7320646f206e6f7420746f756368206974a264697066735822122071477f0c3de054eabc67b4a51b16758b89904bb14bf93f1b0d31f46dec8c831764736f6c634300081a0033",
					"opcodes": "PUSH1 0x80 PUSH1 0x40 MSTORE CALLVALUE DUP1 ISZERO PUSH1 0xE JUMPI PUSH0 DUP1 REVERT JUMPDEST POP PUSH2 0xF87 DUP1 PUSH2 0x1C PUSH0 CODECOPY PUSH0 RETURN INVALID PUSH1 0x80 PUSH1 0x40 MSTORE CALLVALUE DUP1 ISZERO PUSH2 0xF JUMPI PUSH0 DUP1 REVERT JUMPDEST POP PUSH1 0x4 CALLDATASIZE LT PUSH2 0x114 JUMPI PUSH0 CALLDATALOAD PUSH1 0xE0 SHR DUP1 PUSH4 0x8FDA356D GT PUSH2 0xA0 JUMPI DUP1 PUSH4 0xB6339418 GT PUSH2 0x6F JUMPI DUP1 PUSH4 0xB6339418 EQ PUSH2 0x2CF JUMPI DUP1 PUSH4 0xBCA353BE EQ PUSH2 0x2EB JUMPI DUP1 PUSH4 0xC19D93FB EQ PUSH2 0x2F5 JUMPI DUP1 PUSH4 0xE0819C9A EQ PUSH2 0x313 JUMPI DUP1 PUSH4 0xE894D175 EQ PUSH2 0x331 JUMPI PUSH2 0x114 JUMP JUMPDEST DUP1 PUSH4 0x8FDA356D EQ PUSH2 0x25A JUMPI DUP1 PUSH4 0x9E7A13AD EQ PUSH2 0x264 JUMPI DUP1 PUSH4 0xA621D15E EQ PUSH2 0x295 JUMPI DUP1 PUSH4 0xA7E1A364 EQ PUSH2 0x2B3 JUMPI PUSH2 0x114 JUMP JUMPDEST DUP1 PUSH4 0x471F7CDF GT PUSH2 0xE7 JUMPI DUP1 PUSH4 0x471F7CDF EQ PUSH2 0x1A2 JUMPI DUP1 PUSH4 0x6F760F41 EQ PUSH2 0x1C0 JUMPI DUP1 PUSH4 0x7C216809 EQ PUSH2 0x1DC JUMPI DUP1 PUSH4 0x8701F8CA EQ PUSH2 0x20C JUMPI DUP1 PUSH4 0x8BAB8DD5 EQ PUSH2 0x22A JUMPI PUSH2 0x114 JUMP JUMPDEST DUP1 PUSH4 0xCD2636E EQ PUSH2 0x118 JUMPI DUP1 PUSH4 0x22F3E2D4 EQ PUSH2 0x136 JUMPI DUP1 PUSH4 0x29CD1D96 EQ PUSH2 0x154 JUMPI DUP1 PUSH4 0x3A32B549 EQ PUSH2 0x184 JUMPI JUMPDEST PUSH0 DUP1 REVERT JUMPDEST PUSH2 0x120 PUSH2 0x361 JUMP JUMPDEST PUSH1 0x40 MLOAD PUSH2 0x12D SWAP2 SWAP1 PUSH2 0x739 JUMP JUMPDEST PUSH1 0x40 MLOAD DUP1 SWAP2 SUB SWAP1 RETURN JUMPDEST PUSH2 0x13E PUSH2 0x39E JUMP JUMPDEST PUSH1 0x40 MLOAD PUSH2 0x14B SWAP2 SWAP1 PUSH2 0x76C JUMP JUMPDEST PUSH1 0x40 MLOAD DUP1 SWAP2 SUB SWAP1 RETURN JUMPDEST PUSH2 0x16E PUSH1 0x4 DUP1 CALLDATASIZE SUB DUP2 ADD SWAP1 PUSH2 0x169 SWAP2 SWAP1 PUSH2 0x7C0 JUMP JUMPDEST PUSH2 0x3D9 JUMP JUMPDEST PUSH1 0x40 MLOAD PUSH2 0x17B SWAP2 SWAP1 PUSH2 0x739 JUMP JUMPDEST PUSH1 0x40 MLOAD DUP1 SWAP2 SUB SWAP1 RETURN JUMPDEST PUSH2 0x18C PUSH2 0x3F9 JUMP JUMPDEST PUSH1 0x40 MLOAD PUSH2 0x199 SWAP2 SWAP1 PUSH2 0x85B JUMP JUMPDEST PUSH1 0x40 MLOAD DUP1 SWAP2 SUB SWAP1 RETURN JUMPDEST PUSH2 0x1AA PUSH2 0x436 JUMP JUMPDEST PUSH1 0x40 MLOAD PUSH2 0x1B7 SWAP2 SWAP1 PUSH2 0x739 JUMP JUMPDEST PUSH1 0x40 MLOAD DUP1 SWAP2 SUB SWAP1 RETURN JUMPDEST PUSH2 0x1DA PUSH1 0x4 DUP1 CALLDATASIZE SUB DUP2 ADD SWAP1 PUSH2 0x1D5 SWAP2 SWAP1 PUSH2 0x9A7 JUMP JUMPDEST PUSH2 0x43C JUMP JUMPDEST STOP JUMPDEST PUSH2 0x1F6 PUSH1 0x4 DUP1 CALLDATASIZE SUB DUP2 ADD SWAP1 PUSH2 0x1F1 SWAP2 SWAP1 PUSH2 0xA5E JUMP JUMPDEST PUSH2 0x462 JUMP JUMPDEST PUSH1 0x40 MLOAD PUSH2 0x203 SWAP2 SWAP1 PUSH2 0x85B JUMP JUMPDEST PUSH1 0x40 MLOAD DUP1 SWAP2 SUB SWAP1 RETURN JUMPDEST PUSH2 0x214 PUSH2 0x493 JUMP JUMPDEST PUSH1 0x40 MLOAD PUSH2 0x221 SWAP2 SWAP1 PUSH2 0x85B JUMP JUMPDEST PUSH1 0x40 MLOAD DUP1 SWAP2 SUB SWAP1 RETURN JUMPDEST PUSH2 0x244 PUSH1 0x4 DUP1 CALLDATASIZE SUB DUP2 ADD SWAP1 PUSH2 0x23F SWAP2 SWAP1 PUSH2 0xAA9 JUMP JUMPDEST PUSH2 0x4A2 JUMP JUMPDEST PUSH1 0x40 MLOAD PUSH2 0x251 SWAP2 SWAP1 PUSH2 0x739 JUMP JUMPDEST PUSH1 0x40 MLOAD DUP1 SWAP2 SUB SWAP1 RETURN JUMPDEST PUSH2 0x262 PUSH2 0x4CE JUMP JUMPDEST STOP JUMPDEST PUSH2 0x27E PUSH1 0x4 DUP1 CALLDATASIZE SUB DUP2 ADD SWAP1 PUSH2 0x279 SWAP2 SWAP1 PUSH2 0x7C0 JUMP JUMPDEST PUSH2 0x4F9 JUMP JUMPDEST PUSH1 0x40 MLOAD PUSH2 0x28C SWAP3 SWAP2 SWAP1 PUSH2 0xAF0 JUMP JUMPDEST PUSH1 0x40 MLOAD DUP1 SWAP2 SUB SWAP1 RETURN JUMPDEST PUSH2 0x29D PUSH2 0x5AE JUMP JUMPDEST PUSH1 0x40 MLOAD PUSH2 0x2AA SWAP2 SWAP1 PUSH2 0x739 JUMP JUMPDEST PUSH1 0x40 MLOAD DUP1 SWAP2 SUB SWAP1 RETURN JUMPDEST PUSH2 0x2CD PUSH1 0x4 DUP1 CALLDATASIZE SUB DUP2 ADD SWAP1 PUSH2 0x2C8 SWAP2 SWAP1 PUSH2 0x7C0 JUMP JUMPDEST PUSH2 0x5B7 JUMP JUMPDEST STOP JUMPDEST PUSH2 0x2E9 PUSH1 0x4 DUP1 CALLDATASIZE SUB DUP2 ADD SWAP1 PUSH2 0x2E4 SWAP2 SWAP1 PUSH2 0x7C0 JUMP JUMPDEST PUSH2 0x5E0 JUMP JUMPDEST STOP JUMPDEST PUSH2 0x2F3 PUSH2 0x623 JUMP JUMPDEST STOP JUMPDEST PUSH2 0x2FD PUSH2 0x64F JUMP JUMPDEST PUSH1 0x40 MLOAD PUSH2 0x30A SWAP2 SWAP1 PUSH2 0xB91 JUMP JUMPDEST PUSH1 0x40 MLOAD DUP1 SWAP2 SUB SWAP1 RETURN JUMPDEST PUSH2 0x31B PUSH2 0x661 JUMP JUMPDEST PUSH1 0x40 MLOAD PUSH2 0x328 SWAP2 SWAP1 PUSH2 0x85B JUMP JUMPDEST PUSH1 0x40 MLOAD DUP1 SWAP2 SUB SWAP1 RETURN JUMPDEST PUSH2 0x34B PUSH1 0x4 DUP1 CALLDATASIZE SUB DUP2 ADD SWAP1 PUSH2 0x346 SWAP2 SWAP1 PUSH2 0xBAA JUMP JUMPDEST PUSH2 0x6D8 JUMP JUMPDEST PUSH1 0x40 MLOAD PUSH2 0x358 SWAP2 SWAP1 PUSH2 0x739 JUMP JUMPDEST PUSH1 0x40 MLOAD DUP1 SWAP2 SUB SWAP1 RETURN JUMPDEST PUSH0 DUP1 PUSH0 SWAP1 POP PUSH0 PUSH1 0x1 SWAP1 POP JUMPDEST PUSH1 0x1 SLOAD DUP2 GT PUSH2 0x396 JUMPI DUP1 DUP3 PUSH2 0x381 SWAP2 SWAP1 PUSH2 0xC15 JUMP JUMPDEST SWAP2 POP DUP1 DUP1 PUSH2 0x38E SWAP1 PUSH2 0xC48 JUMP JUMPDEST SWAP2 POP POP PUSH2 0x36C JUMP JUMPDEST POP DUP1 SWAP2 POP POP SWAP1 JUMP JUMPDEST PUSH0 DUP1 PUSH1 0x1 DUP2 GT ISZERO PUSH2 0x3B2 JUMPI PUSH2 0x3B1 PUSH2 0xB1E JUMP JUMPDEST JUMPDEST PUSH1 0x4 PUSH0 SWAP1 SLOAD SWAP1 PUSH2 0x100 EXP SWAP1 DIV PUSH1 0xFF AND PUSH1 0x1 DUP2 GT ISZERO PUSH2 0x3D3 JUMPI PUSH2 0x3D2 PUSH2 0xB1E JUMP JUMPDEST JUMPDEST EQ SWAP1 POP SWAP1 JUMP JUMPDEST PUSH1 0x2 DUP2 DUP2 SLOAD DUP2 LT PUSH2 0x3E8 JUMPI PUSH0 DUP1 REVERT JUMPDEST SWAP1 PUSH0 MSTORE PUSH1 0x20 PUSH0 KECCAK256 ADD PUSH0 SWAP2 POP SWAP1 POP SLOAD DUP2 JUMP JUMPDEST PUSH1 0x60 PUSH1 0x40 MLOAD DUP1 PUSH1 0x40 ADD PUSH1 0x40 MSTORE DUP1 PUSH1 0xC DUP2 MSTORE PUSH1 0x20 ADD PUSH32 0x48656C6C6F20776F726C64210000000000000000000000000000000000000000 DUP2 MSTORE POP SWAP1 POP SWAP1 JUMP JUMPDEST PUSH1 0x1 SLOAD DUP2 JUMP JUMPDEST DUP1 PUSH0 DUP4 PUSH1 0x40 MLOAD PUSH2 0x44C SWAP2 SWAP1 PUSH2 0xCC9 JUMP JUMPDEST SWAP1 DUP2 MSTORE PUSH1 0x20 ADD PUSH1 0x40 MLOAD DUP1 SWAP2 SUB SWAP1 KECCAK256 DUP2 SWAP1 SSTORE POP POP POP JUMP JUMPDEST PUSH1 0x60 PUSH0 DUP4 DUP4 PUSH1 0x40 MLOAD PUSH1 0x20 ADD PUSH2 0x478 SWAP3 SWAP2 SWAP1 PUSH2 0xD4D JUMP JUMPDEST PUSH1 0x40 MLOAD PUSH1 0x20 DUP2 DUP4 SUB SUB DUP2 MSTORE SWAP1 PUSH1 0x40 MSTORE SWAP1 POP DUP1 SWAP2 POP POP SWAP3 SWAP2 POP POP JUMP JUMPDEST PUSH1 0x60 PUSH2 0x49D PUSH2 0x701 JUMP JUMPDEST SWAP1 POP SWAP1 JUMP JUMPDEST PUSH0 DUP2 DUP1 MLOAD PUSH1 0x20 DUP2 ADD DUP3 ADD DUP1 MLOAD DUP5 DUP3 MSTORE PUSH1 0x20 DUP4 ADD PUSH1 0x20 DUP6 ADD KECCAK256 DUP2 DUP4 MSTORE DUP1 SWAP6 POP POP POP POP POP POP PUSH0 SWAP2 POP SWAP1 POP SLOAD DUP2 JUMP JUMPDEST PUSH0 PUSH1 0x4 PUSH0 PUSH2 0x100 EXP DUP2 SLOAD DUP2 PUSH1 0xFF MUL NOT AND SWAP1 DUP4 PUSH1 0x1 DUP2 GT ISZERO PUSH2 0x4F2 JUMPI PUSH2 0x4F1 PUSH2 0xB1E JUMP JUMPDEST JUMPDEST MUL OR SWAP1 SSTORE POP JUMP JUMPDEST PUSH1 0x3 DUP2 DUP2 SLOAD DUP2 LT PUSH2 0x508 JUMPI PUSH0 DUP1 REVERT JUMPDEST SWAP1 PUSH0 MSTORE PUSH1 0x20 PUSH0 KECCAK256 SWAP1 PUSH1 0x2 MUL ADD PUSH0 SWAP2 POP SWAP1 POP DUP1 PUSH0 ADD DUP1 SLOAD PUSH2 0x527 SWAP1 PUSH2 0xD9D JUMP JUMPDEST DUP1 PUSH1 0x1F ADD PUSH1 0x20 DUP1 SWAP2 DIV MUL PUSH1 0x20 ADD PUSH1 0x40 MLOAD SWAP1 DUP2 ADD PUSH1 0x40 MSTORE DUP1 SWAP3 SWAP2 SWAP1 DUP2 DUP2 MSTORE PUSH1 0x20 ADD DUP3 DUP1 SLOAD PUSH2 0x553 SWAP1 PUSH2 0xD9D JUMP JUMPDEST DUP1 ISZERO PUSH2 0x59E JUMPI DUP1 PUSH1 0x1F LT PUSH2 0x575 JUMPI PUSH2 0x100 DUP1 DUP4 SLOAD DIV MUL DUP4 MSTORE SWAP2 PUSH1 0x20 ADD SWAP2 PUSH2 0x59E JUMP JUMPDEST DUP3 ADD SWAP2 SWAP1 PUSH0 MSTORE PUSH1 0x20 PUSH0 KECCAK256 SWAP1 JUMPDEST DUP2 SLOAD DUP2 MSTORE SWAP1 PUSH1 0x1 ADD SWAP1 PUSH1 0x20 ADD DUP1 DUP4 GT PUSH2 0x581 JUMPI DUP3 SWAP1 SUB PUSH1 0x1F AND DUP3 ADD SWAP2 JUMPDEST POP POP POP POP POP SWAP1 DUP1 PUSH1 0x1 ADD SLOAD SWAP1 POP DUP3 JUMP JUMPDEST PUSH0 PUSH1 0x1 SLOAD SWAP1 POP SWAP1 JUMP JUMPDEST PUSH1 0x2 DUP2 SWAP1 DUP1 PUSH1 0x1 DUP2 SLOAD ADD DUP1 DUP3 SSTORE DUP1 SWAP2 POP POP PUSH1 0x1 SWAP1 SUB SWAP1 PUSH0 MSTORE PUSH1 0x20 PUSH0 KECCAK256 ADD PUSH0 SWAP1 SWAP2 SWAP1 SWAP2 SWAP1 SWAP2 POP SSTORE POP JUMP JUMPDEST DUP1 PUSH1 0x1 DUP2 SWAP1 SSTORE POP PUSH32 0xE5F28171F43FC54876F02589C23CC70D19E06F868CC3811C456E8C61C296A27E DUP2 CALLER PUSH1 0x40 MLOAD PUSH2 0x618 SWAP3 SWAP2 SWAP1 PUSH2 0xE0C JUMP JUMPDEST PUSH1 0x40 MLOAD DUP1 SWAP2 SUB SWAP1 LOG1 POP JUMP JUMPDEST PUSH1 0x1 PUSH1 0x4 PUSH0 PUSH2 0x100 EXP DUP2 SLOAD DUP2 PUSH1 0xFF MUL NOT AND SWAP1 DUP4 PUSH1 0x1 DUP2 GT ISZERO PUSH2 0x648 JUMPI PUSH2 0x647 PUSH2 0xB1E JUMP JUMPDEST JUMPDEST MUL OR SWAP1 SSTORE POP JUMP JUMPDEST PUSH1 0x4 PUSH0 SWAP1 SLOAD SWAP1 PUSH2 0x100 EXP SWAP1 DIV PUSH1 0xFF AND DUP2 JUMP JUMPDEST PUSH1 0x60 ADDRESS PUSH20 0xFFFFFFFFFFFFFFFFFFFFFFFFFFFFFFFFFFFFFFFF AND PUSH4 0x3A32B549 PUSH1 0x40 MLOAD DUP2 PUSH4 0xFFFFFFFF AND PUSH1 0xE0 SHL DUP2 MSTORE PUSH1 0x4 ADD PUSH0 PUSH1 0x40 MLOAD DUP1 DUP4 SUB DUP2 DUP7 GAS STATICCALL ISZERO DUP1 ISZERO PUSH2 0x6AB JUMPI RETURNDATASIZE PUSH0 DUP1 RETURNDATACOPY RETURNDATASIZE PUSH0 REVERT JUMPDEST POP POP POP POP PUSH1 0x40 MLOAD RETURNDATASIZE PUSH0 DUP3 RETURNDATACOPY RETURNDATASIZE PUSH1 0x1F NOT PUSH1 0x1F DUP3 ADD AND DUP3 ADD DUP1 PUSH1 0x40 MSTORE POP DUP2 ADD SWAP1 PUSH2 0x6D3 SWAP2 SWAP1 PUSH2 0xEA1 JUMP JUMPDEST SWAP1 POP SWAP1 JUMP JUMPDEST PUSH0 DUP1 DUP3 DUP5 PUSH2 0x6E6 SWAP2 SWAP1 PUSH2 0xC15 JUMP JUMPDEST SWAP1 POP PUSH1 0x2 DUP2 PUSH2 0x6F5 SWAP2 SWAP1 PUSH2 0xEE8 JUMP JUMPDEST SWAP1 POP DUP1 SWAP2 POP POP SWAP3 SWAP2 POP POP JUMP JUMPDEST PUSH1 0x60 PUSH1 0x40 MLOAD DUP1 PUSH1 0x60 ADD PUSH1 0x40 MSTORE DUP1 PUSH1 0x28 DUP2 MSTORE PUSH1 0x20 ADD PUSH2 0xF2A PUSH1 0x28 SWAP2 CODECOPY SWAP1 POP SWAP1 JUMP JUMPDEST PUSH0 DUP2 SWAP1 POP SWAP2 SWAP1 POP JUMP JUMPDEST PUSH2 0x733 DUP2 PUSH2 0x721 JUMP JUMPDEST DUP3 MSTORE POP POP JUMP JUMPDEST PUSH0 PUSH1 0x20 DUP3 ADD SWAP1 POP PUSH2 0x74C PUSH0 DUP4 ADD DUP5 PUSH2 0x72A JUMP JUMPDEST SWAP3 SWAP2 POP POP JUMP JUMPDEST PUSH0 DUP2 ISZERO ISZERO SWAP1 POP SWAP2 SWAP1 POP JUMP JUMPDEST PUSH2 0x766 DUP2 PUSH2 0x752 JUMP JUMPDEST DUP3 MSTORE POP POP JUMP JUMPDEST PUSH0 PUSH1 0x20 DUP3 ADD SWAP1 POP PUSH2 0x77F PUSH0 DUP4 ADD DUP5 PUSH2 0x75D JUMP JUMPDEST SWAP3 SWAP2 POP POP JUMP JUMPDEST PUSH0 PUSH1 0x40 MLOAD SWAP1 POP SWAP1 JUMP JUMPDEST PUSH0 DUP1 REVERT JUMPDEST PUSH0 DUP1 REVERT JUMPDEST PUSH2 0x79F DUP2 PUSH2 0x721 JUMP JUMPDEST DUP2 EQ PUSH2 0x7A9 JUMPI PUSH0 DUP1 REVERT JUMPDEST POP JUMP JUMPDEST PUSH0 DUP2 CALLDATALOAD SWAP1 POP PUSH2 0x7BA DUP2 PUSH2 0x796 JUMP JUMPDEST SWAP3 SWAP2 POP POP JUMP JUMPDEST PUSH0 PUSH1 0x20 DUP3 DUP5 SUB SLT ISZERO PUSH2 0x7D5 JUMPI PUSH2 0x7D4 PUSH2 0x78E JUMP JUMPDEST JUMPDEST PUSH0 PUSH2 0x7E2 DUP5 DUP3 DUP6 ADD PUSH2 0x7AC JUMP JUMPDEST SWAP2 POP POP SWAP3 SWAP2 POP POP JUMP JUMPDEST PUSH0 DUP2 MLOAD SWAP1 POP SWAP2 SWAP1 POP JUMP JUMPDEST PUSH0 DUP3 DUP3 MSTORE PUSH1 0x20 DUP3 ADD SWAP1 POP SWAP3 SWAP2 POP POP JUMP JUMPDEST DUP3 DUP2 DUP4 MCOPY PUSH0 DUP4 DUP4 ADD MSTORE POP POP POP JUMP JUMPDEST PUSH0 PUSH1 0x1F NOT PUSH1 0x1F DUP4 ADD AND SWAP1 POP SWAP2 SWAP1 POP JUMP JUMPDEST PUSH0 PUSH2 0x82D DUP3 PUSH2 0x7EB JUMP JUMPDEST PUSH2 0x837 DUP2 DUP6 PUSH2 0x7F5 JUMP JUMPDEST SWAP4 POP PUSH2 0x847 DUP2 DUP6 PUSH1 0x20 DUP7 ADD PUSH2 0x805 JUMP JUMPDEST PUSH2 0x850 DUP2 PUSH2 0x813 JUMP JUMPDEST DUP5 ADD SWAP2 POP POP SWAP3 SWAP2 POP POP JUMP JUMPDEST PUSH0 PUSH1 0x20 DUP3 ADD SWAP1 POP DUP2 DUP2 SUB PUSH0 DUP4 ADD MSTORE PUSH2 0x873 DUP2 DUP5 PUSH2 0x823 JUMP JUMPDEST SWAP1 POP SWAP3 SWAP2 POP POP JUMP JUMPDEST PUSH0 DUP1 REVERT JUMPDEST PUSH0 DUP1 REVERT JUMPDEST PUSH32 0x4E487B7100000000000000000000000000000000000000000000000000000000 PUSH0 MSTORE PUSH1 0x41 PUSH1 0x4 MSTORE PUSH1 0x24 PUSH0 REVERT JUMPDEST PUSH2 0x8B9 DUP3 PUSH2 0x813 JUMP JUMPDEST DUP2 ADD DUP2 DUP2 LT PUSH8 0xFFFFFFFFFFFFFFFF DUP3 GT OR ISZERO PUSH2 0x8D8 JUMPI PUSH2 0x8D7 PUSH2 0x883 JUMP JUMPDEST JUMPDEST DUP1 PUSH1 0x40 MSTORE POP POP POP JUMP JUMPDEST PUSH0 PUSH2 0x8EA PUSH2 0x785 JUMP JUMPDEST SWAP1 POP PUSH2 0x8F6 DUP3 DUP3 PUSH2 0x8B0 JUMP JUMPDEST SWAP2 SWAP1 POP JUMP JUMPDEST PUSH0 PUSH8 0xFFFFFFFFFFFFFFFF DUP3 GT ISZERO PUSH2 0x915 JUMPI PUSH2 0x914 PUSH2 0x883 JUMP JUMPDEST JUMPDEST PUSH2 0x91E DUP3 PUSH2 0x813 JUMP JUMPDEST SWAP1 POP PUSH1 0x20 DUP2 ADD SWAP1 POP SWAP2 SWAP1 POP JUMP JUMPDEST DUP3 DUP2 DUP4 CALLDATACOPY PUSH0 DUP4 DUP4 ADD MSTORE POP POP POP JUMP JUMPDEST PUSH0 PUSH2 0x94B PUSH2 0x946 DUP5 PUSH2 0x8FB JUMP JUMPDEST PUSH2 0x8E1 JUMP JUMPDEST SWAP1 POP DUP3 DUP2 MSTORE PUSH1 0x20 DUP2 ADD DUP5 DUP5 DUP5 ADD GT ISZERO PUSH2 0x967 JUMPI PUSH2 0x966 PUSH2 0x87F JUMP JUMPDEST JUMPDEST PUSH2 0x972 DUP5 DUP3 DUP6 PUSH2 0x92B JUMP JUMPDEST POP SWAP4 SWAP3 POP POP POP JUMP JUMPDEST PUSH0 DUP3 PUSH1 0x1F DUP4 ADD SLT PUSH2 0x98E JUMPI PUSH2 0x98D PUSH2 0x87B JUMP JUMPDEST JUMPDEST DUP2 CALLDATALOAD PUSH2 0x99E DUP5 DUP3 PUSH1 0x20 DUP7 ADD PUSH2 0x939 JUMP JUMPDEST SWAP2 POP POP SWAP3 SWAP2 POP POP JUMP JUMPDEST PUSH0 DUP1 PUSH1 0x40 DUP4 DUP6 SUB SLT ISZERO PUSH2 0x9BD JUMPI PUSH2 0x9BC PUSH2 0x78E JUMP JUMPDEST JUMPDEST PUSH0 DUP4 ADD CALLDATALOAD PUSH8 0xFFFFFFFFFFFFFFFF DUP2 GT ISZERO PUSH2 0x9DA JUMPI PUSH2 0x9D9 PUSH2 0x792 JUMP JUMPDEST JUMPDEST PUSH2 0x9E6 DUP6 DUP3 DUP7 ADD PUSH2 0x97A JUMP JUMPDEST SWAP3 POP POP PUSH1 0x20 PUSH2 0x9F7 DUP6 DUP3 DUP7 ADD PUSH2 0x7AC JUMP JUMPDEST SWAP2 POP POP SWAP3 POP SWAP3 SWAP1 POP JUMP JUMPDEST PUSH0 DUP1 REVERT JUMPDEST PUSH0 DUP1 REVERT JUMPDEST PUSH0 DUP1 DUP4 PUSH1 0x1F DUP5 ADD SLT PUSH2 0xA1E JUMPI PUSH2 0xA1D PUSH2 0x87B JUMP JUMPDEST JUMPDEST DUP3 CALLDATALOAD SWAP1 POP PUSH8 0xFFFFFFFFFFFFFFFF DUP2 GT ISZERO PUSH2 0xA3B JUMPI PUSH2 0xA3A PUSH2 0xA01 JUMP JUMPDEST JUMPDEST PUSH1 0x20 DUP4 ADD SWAP2 POP DUP4 PUSH1 0x1 DUP3 MUL DUP4 ADD GT ISZERO PUSH2 0xA57 JUMPI PUSH2 0xA56 PUSH2 0xA05 JUMP JUMPDEST JUMPDEST SWAP3 POP SWAP3 SWAP1 POP JUMP JUMPDEST PUSH0 DUP1 PUSH1 0x20 DUP4 DUP6 SUB SLT ISZERO PUSH2 0xA74 JUMPI PUSH2 0xA73 PUSH2 0x78E JUMP JUMPDEST JUMPDEST PUSH0 DUP4 ADD CALLDATALOAD PUSH8 0xFFFFFFFFFFFFFFFF DUP2 GT ISZERO PUSH2 0xA91 JUMPI PUSH2 0xA90 PUSH2 0x792 JUMP JUMPDEST JUMPDEST PUSH2 0xA9D DUP6 DUP3 DUP7 ADD PUSH2 0xA09 JUMP JUMPDEST SWAP3 POP SWAP3 POP POP SWAP3 POP SWAP3 SWAP1 POP JUMP JUMPDEST PUSH0 PUSH1 0x20 DUP3 DUP5 SUB SLT ISZERO PUSH2 0xABE JUMPI PUSH2 0xABD PUSH2 0x78E JUMP JUMPDEST JUMPDEST PUSH0 DUP3 ADD CALLDATALOAD PUSH8 0xFFFFFFFFFFFFFFFF DUP2 GT ISZERO PUSH2 0xADB JUMPI PUSH2 0xADA PUSH2 0x792 JUMP JUMPDEST JUMPDEST PUSH2 0xAE7 DUP5 DUP3 DUP6 ADD PUSH2 0x97A JUMP JUMPDEST SWAP2 POP POP SWAP3 SWAP2 POP POP JUMP JUMPDEST PUSH0 PUSH1 0x40 DUP3 ADD SWAP1 POP DUP2 DUP2 SUB PUSH0 DUP4 ADD MSTORE PUSH2 0xB08 DUP2 DUP6 PUSH2 0x823 JUMP JUMPDEST SWAP1 POP PUSH2 0xB17 PUSH1 0x20 DUP4 ADD DUP5 PUSH2 0x72A JUMP JUMPDEST SWAP4 SWAP3 POP POP POP JUMP JUMPDEST PUSH32 0x4E487B7100000000000000000000000000000000000000000000000000000000 PUSH0 MSTORE PUSH1 0x21 PUSH1 0x4 MSTORE PUSH1 0x24 PUSH0 REVERT JUMPDEST PUSH1 0x2 DUP2 LT PUSH2 0xB5C JUMPI PUSH2 0xB5B PUSH2 0xB1E JUMP JUMPDEST JUMPDEST POP JUMP JUMPDEST PUSH0 DUP2 SWAP1 POP PUSH2 0xB6C DUP3 PUSH2 0xB4B JUMP JUMPDEST SWAP2 SWAP1 POP JUMP JUMPDEST PUSH0 PUSH2 0xB7B DUP3 PUSH2 0xB5F JUMP JUMPDEST SWAP1 POP SWAP2 SWAP1 POP JUMP JUMPDEST PUSH2 0xB8B DUP2 PUSH2 0xB71 JUMP JUMPDEST DUP3 MSTORE POP POP JUMP JUMPDEST PUSH0 PUSH1 0x20 DUP3 ADD SWAP1 POP PUSH2 0xBA4 PUSH0 DUP4 ADD DUP5 PUSH2 0xB82 JUMP JUMPDEST SWAP3 SWAP2 POP POP JUMP JUMPDEST PUSH0 DUP1 PUSH1 0x40 DUP4 DUP6 SUB SLT ISZERO PUSH2 0xBC0 JUMPI PUSH2 0xBBF PUSH2 0x78E JUMP JUMPDEST JUMPDEST PUSH0 PUSH2 0xBCD DUP6 DUP3 DUP7 ADD PUSH2 0x7AC JUMP JUMPDEST SWAP3 POP POP PUSH1 0x20 PUSH2 0xBDE DUP6 DUP3 DUP7 ADD PUSH2 0x7AC JUMP JUMPDEST SWAP2 POP POP SWAP3 POP SWAP3 SWAP1 POP JUMP JUMPDEST PUSH32 0x4E487B7100000000000000000000000000000000000000000000000000000000 PUSH0 MSTORE PUSH1 0x11 PUSH1 0x4 MSTORE PUSH1 0x24 PUSH0 REVERT JUMPDEST PUSH0 PUSH2 0xC1F DUP3 PUSH2 0x721 JUMP JUMPDEST SWAP2 POP PUSH2 0xC2A DUP4 PUSH2 0x721 JUMP JUMPDEST SWAP3 POP DUP3 DUP3 ADD SWAP1 POP DUP1 DUP3 GT ISZERO PUSH2 0xC42 JUMPI PUSH2 0xC41 PUSH2 0xBE8 JUMP JUMPDEST JUMPDEST SWAP3 SWAP2 POP POP JUMP JUMPDEST PUSH0 PUSH2 0xC52 DUP3 PUSH2 0x721 JUMP JUMPDEST SWAP2 POP PUSH32 0xFFFFFFFFFFFFFFFFFFFFFFFFFFFFFFFFFFFFFFFFFFFFFFFFFFFFFFFFFFFFFFFF DUP3 SUB PUSH2 0xC84 JUMPI PUSH2 0xC83 PUSH2 0xBE8 JUMP JUMPDEST JUMPDEST PUSH1 0x1 DUP3 ADD SWAP1 POP SWAP2 SWAP1 POP JUMP JUMPDEST PUSH0 DUP2 SWAP1 POP SWAP3 SWAP2 POP POP JUMP JUMPDEST PUSH0 PUSH2 0xCA3 DUP3 PUSH2 0x7EB JUMP JUMPDEST PUSH2 0xCAD DUP2 DUP6 PUSH2 0xC8F JUMP JUMPDEST SWAP4 POP PUSH2 0xCBD DUP2 DUP6 PUSH1 0x20 DUP7 ADD PUSH2 0x805 JUMP JUMPDEST DUP1 DUP5 ADD SWAP2 POP POP SWAP3 SWAP2 POP POP JUMP JUMPDEST PUSH0 PUSH2 0xCD4 DUP3 DUP5 PUSH2 0xC99 JUMP JUMPDEST SWAP2 POP DUP2 SWAP1 POP SWAP3 SWAP2 POP POP JUMP JUMPDEST PUSH32 0x50726F6365737365643A20000000000000000000000000000000000000000000 PUSH0 DUP3 ADD MSTORE POP JUMP JUMPDEST PUSH0 PUSH2 0xD13 PUSH1 0xB DUP4 PUSH2 0xC8F JUMP JUMPDEST SWAP2 POP PUSH2 0xD1E DUP3 PUSH2 0xCDF JUMP JUMPDEST PUSH1 0xB DUP3 ADD SWAP1 POP SWAP2 SWAP1 POP JUMP JUMPDEST PUSH0 PUSH2 0xD34 DUP4 DUP6 PUSH2 0xC8F JUMP JUMPDEST SWAP4 POP PUSH2 0xD41 DUP4 DUP6 DUP5 PUSH2 0x92B JUMP JUMPDEST DUP3 DUP5 ADD SWAP1 POP SWAP4 SWAP3 POP POP POP JUMP JUMPDEST PUSH0 PUSH2 0xD57 DUP3 PUSH2 0xD07 JUMP JUMPDEST SWAP2 POP PUSH2 0xD64 DUP3 DUP5 DUP7 PUSH2 0xD29 JUMP JUMPDEST SWAP2 POP DUP2 SWAP1 POP SWAP4 SWAP3 POP POP POP JUMP JUMPDEST PUSH32 0x4E487B7100000000000000000000000000000000000000000000000000000000 PUSH0 MSTORE PUSH1 0x22 PUSH1 0x4 MSTORE PUSH1 0x24 PUSH0 REVERT JUMPDEST PUSH0 PUSH1 0x2 DUP3 DIV SWAP1 POP PUSH1 0x1 DUP3 AND DUP1 PUSH2 0xDB4 JUMPI PUSH1 0x7F DUP3 AND SWAP2 POP JUMPDEST PUSH1 0x20 DUP3 LT DUP2 SUB PUSH2 0xDC7 JUMPI PUSH2 0xDC6 PUSH2 0xD70 JUMP JUMPDEST JUMPDEST POP SWAP2 SWAP1 POP JUMP JUMPDEST PUSH0 PUSH20 0xFFFFFFFFFFFFFFFFFFFFFFFFFFFFFFFFFFFFFFFF DUP3 AND SWAP1 POP SWAP2 SWAP1 POP JUMP JUMPDEST PUSH0 PUSH2 0xDF6 DUP3 PUSH2 0xDCD JUMP JUMPDEST SWAP1 POP SWAP2 SWAP1 POP JUMP JUMPDEST PUSH2 0xE06 DUP2 PUSH2 0xDEC JUMP JUMPDEST DUP3 MSTORE POP POP JUMP JUMPDEST PUSH0 PUSH1 0x40 DUP3 ADD SWAP1 POP PUSH2 0xE1F PUSH0 DUP4 ADD DUP6 PUSH2 0x72A JUMP JUMPDEST PUSH2 0xE2C PUSH1 0x20 DUP4 ADD DUP5 PUSH2 0xDFD JUMP JUMPDEST SWAP4 SWAP3 POP POP POP JUMP JUMPDEST PUSH0 PUSH2 0xE45 PUSH2 0xE40 DUP5 PUSH2 0x8FB JUMP JUMPDEST PUSH2 0x8E1 JUMP JUMPDEST SWAP1 POP DUP3 DUP2 MSTORE PUSH1 0x20 DUP2 ADD DUP5 DUP5 DUP5 ADD GT ISZERO PUSH2 0xE61 JUMPI PUSH2 0xE60 PUSH2 0x87F JUMP JUMPDEST JUMPDEST PUSH2 0xE6C DUP5 DUP3 DUP6 PUSH2 0x805 JUMP JUMPDEST POP SWAP4 SWAP3 POP POP POP JUMP JUMPDEST PUSH0 DUP3 PUSH1 0x1F DUP4 ADD SLT PUSH2 0xE88 JUMPI PUSH2 0xE87 PUSH2 0x87B JUMP JUMPDEST JUMPDEST DUP2 MLOAD PUSH2 0xE98 DUP5 DUP3 PUSH1 0x20 DUP7 ADD PUSH2 0xE33 JUMP JUMPDEST SWAP2 POP POP SWAP3 SWAP2 POP POP JUMP JUMPDEST PUSH0 PUSH1 0x20 DUP3 DUP5 SUB SLT ISZERO PUSH2 0xEB6 JUMPI PUSH2 0xEB5 PUSH2 0x78E JUMP JUMPDEST JUMPDEST PUSH0 DUP3 ADD MLOAD PUSH8 0xFFFFFFFFFFFFFFFF DUP2 GT ISZERO PUSH2 0xED3 JUMPI PUSH2 0xED2 PUSH2 0x792 JUMP JUMPDEST JUMPDEST PUSH2 0xEDF DUP5 DUP3 DUP6 ADD PUSH2 0xE74 JUMP JUMPDEST SWAP2 POP POP SWAP3 SWAP2 POP POP JUMP JUMPDEST PUSH0 PUSH2 0xEF2 DUP3 PUSH2 0x721 JUMP JUMPDEST SWAP2 POP PUSH2 0xEFD DUP4 PUSH2 0x721 JUMP JUMPDEST SWAP3 POP DUP3 DUP3 MUL PUSH2 0xF0B DUP2 PUSH2 0x721 JUMP JUMPDEST SWAP2 POP DUP3 DUP3 DIV DUP5 EQ DUP4 ISZERO OR PUSH2 0xF22 JUMPI PUSH2 0xF21 PUSH2 0xBE8 JUMP JUMPDEST JUMPDEST POP SWAP3 SWAP2 POP POP JUMP INVALID BASEFEE PUSH6 0x6C6C6F20776F PUSH19 0x6C642120496620697420776F726B7320646F20 PUSH15 0x6F7420746F756368206974A2646970 PUSH7 0x73582212207147 PUSH32 0xC3DE054EABC67B4A51B16758B89904BB14BF93F1B0D31F46DEC8C831764736F PUSH13 0x634300081A0033000000000000 "
				},
				"gasEstimates": {
					"creation": {
						"codeDepositCost": "795000",
						"executionCost": "829",
						"totalCost": "795829"
					},
					"external": {
						"MemoryVariableCalculation(uint256,uint256)": "infinite",
						"activateContract()": "24451",
						"addFavoriteNumber(uint256)": "46910",
						"addPerson(string,uint256)": "infinite",
						"callInternalFunction()": "infinite",
						"deactivateContract()": "24473",
						"externalFunction()": "infinite",
						"favoriteNumber()": "2448",
						"favoriteNumbers(uint256)": "infinite",
						"getFavoriteNumber()": "2499",
						"isActive()": "2577",
						"nameToFavoriteNumber(string)": "infinite",
						"people(uint256)": "infinite",
						"processString(string)": "infinite",
						"state()": "2620",
						"storeNumber(uint256)": "infinite",
						"sumToFavoriteNumber()": "infinite",
						"testExternalFunction()": "infinite"
					},
					"internal": {
						"internalFunction()": "infinite"
					}
				},
				"methodIdentifiers": {
					"MemoryVariableCalculation(uint256,uint256)": "e894d175",
					"activateContract()": "8fda356d",
					"addFavoriteNumber(uint256)": "a7e1a364",
					"addPerson(string,uint256)": "6f760f41",
					"callInternalFunction()": "8701f8ca",
					"deactivateContract()": "bca353be",
					"externalFunction()": "3a32b549",
					"favoriteNumber()": "471f7cdf",
					"favoriteNumbers(uint256)": "29cd1d96",
					"getFavoriteNumber()": "a621d15e",
					"isActive()": "22f3e2d4",
					"nameToFavoriteNumber(string)": "8bab8dd5",
					"people(uint256)": "9e7a13ad",
					"processString(string)": "7c216809",
					"state()": "c19d93fb",
					"storeNumber(uint256)": "b6339418",
					"sumToFavoriteNumber()": "0cd2636e",
					"testExternalFunction()": "e0819c9a"
				}
			},
			"storageLayout": {
				"storage": [
					{
						"astId": 5,
						"contract": "SimpleStorage.sol:SimpleStorage",
						"label": "nameToFavoriteNumber",
						"offset": 0,
						"slot": "0",
						"type": "t_mapping(t_string_memory_ptr,t_uint256)"
					},
					{
						"astId": 13,
						"contract": "SimpleStorage.sol:SimpleStorage",
						"label": "favoriteNumber",
						"offset": 0,
						"slot": "1",
						"type": "t_uint256"
					},
					{
						"astId": 16,
						"contract": "SimpleStorage.sol:SimpleStorage",
						"label": "favoriteNumbers",
						"offset": 0,
						"slot": "2",
						"type": "t_array(t_uint256)dyn_storage"
					},
					{
						"astId": 25,
						"contract": "SimpleStorage.sol:SimpleStorage",
						"label": "people",
						"offset": 0,
						"slot": "3",
						"type": "t_array(t_struct(Person)21_storage)dyn_storage"
					},
					{
						"astId": 31,
						"contract": "SimpleStorage.sol:SimpleStorage",
						"label": "state",
						"offset": 0,
						"slot": "4",
						"type": "t_enum(ContractState)28"
					}
				],
				"types": {
					"t_array(t_struct(Person)21_storage)dyn_storage": {
						"base": "t_struct(Person)21_storage",
						"encoding": "dynamic_array",
						"label": "struct SimpleStorage.Person[]",
						"numberOfBytes": "32"
					},
					"t_array(t_uint256)dyn_storage": {
						"base": "t_uint256",
						"encoding": "dynamic_array",
						"label": "uint256[]",
						"numberOfBytes": "32"
					},
					"t_enum(ContractState)28": {
						"encoding": "inplace",
						"label": "enum SimpleStorage.ContractState",
						"numberOfBytes": "1"
					},
					"t_mapping(t_string_memory_ptr,t_uint256)": {
						"encoding": "mapping",
						"key": "t_string_memory_ptr",
						"label": "mapping(string => uint256)",
						"numberOfBytes": "32",
						"value": "t_uint256"
					},
					"t_string_memory_ptr": {
						"encoding": "bytes",
						"label": "string",
						"numberOfBytes": "32"
					},
					"t_string_storage": {
						"encoding": "bytes",
						"label": "string",
						"numberOfBytes": "32"
					},
					"t_struct(Person)21_storage": {
						"encoding": "inplace",
						"label": "struct SimpleStorage.Person",
						"members": [
							{
								"astId": 18,
								"contract": "SimpleStorage.sol:SimpleStorage",
								"label": "name",
								"offset": 0,
								"slot": "0",
								"type": "t_string_storage"
							},
							{
								"astId": 20,
								"contract": "SimpleStorage.sol:SimpleStorage",
								"label": "favoriteNumber",
								"offset": 0,
								"slot": "1",
								"type": "t_uint256"
							}
						],
						"numberOfBytes": "64"
					},
					"t_uint256": {
						"encoding": "inplace",
						"label": "uint256",
						"numberOfBytes": "32"
					}
				}
			},
			"userdoc": {
				"kind": "user",
				"methods": {},
				"version": 1
			}
		}
	}
}